:100000000C946F020C948C020C948C020C948C0255
:100010000C948C020C948C020C948C020C948C0228
:100020000C948C020C948C020C9431130C946D1271
:100030000C94CB1D0C948C020C948C020C948C02AE
:100040000C948C020C948C020C948C020C948C02F8
:100050000C948C020C94591D0C948C020C948C0200
:100060000C948C020C948C020C948C020C948C02D8
:100070000C948C020C948C020C948C020C948C02C8
:100080000C948C020C948C020C948C020C948C02B8
:100090000C948C020C948C020C948C020C948C02A8
:1000A0000C948C020C948C020C948C028B048D04A6
:1000B00098048F0491049304950497049A049C0473
:1000C0009E04A904A004A204A404A604A804AB04EA
:1000D0004D054D058B058B05CD05ED05D707300882
:1000E0002F0630082C072C0739073907390739073D
:1000F0003907390739073907390739073907390700
:1001000039073907390739074A077207790780071E
:100110009807D608D908DC08DF08E208E508E808EF
:100120007E10A5104512A5104512ED1010114512B4
:100130000E122112A514A514B814B814AE14B814D4
:10014000B814B814A514A514B314B814B814B3147F
:1001500073157815821576157B1580157E1535007B
:100160002B002900D75CE00000001E0014000400F2
:100170001D00E30001001F001A0016001B00010013
:1001800001512000080007000600E2002C002100B9
:1001900015000900190001000100220017000A00E3
:1001A0000500000001002300010000002F000000F6
:1001B00001002400010000003000000001002500C3
:1001C0001C000B00110000000100260018000D00AB
:1001D00010002C00010027000C000E00360001006A
:1001E00028002D0012000F003700010002512E00E0
:1001F000130033003800010001002A0031003400F0
:10020000D85CE400000029000100010001000100A9
:1002100000003A001E0220022202010001003B0001
:100220001F0221022302010001003C002F022602CE
:100230002F00010001003D003002270230000100C4
:1002400001003E00310235003502000001000100CE
:100250000100000001000000010001000100000099
:100260000100000001003F00520051002402000084
:1002700001004000240021001E0001000100410097
:10028000250022001F003700010042002600230045
:10029000200027000100430025022E0231002E001D
:1002A00001004C00450001000100010000000100B8
:1002B0000100010001000100000001000100010037
:1002C00001000100010001000100F2000100010035
:1002D00001000100F000F1000100F4000100010044
:1002E0000100F3000100F500010001000100010020
:1002F00001000000010001000100000001000000F9
:1003000001000100010000000100000001000100E7
:100310000100010001000000010001003B0F3C0F43
:100320003D0F01000100010001003A0F0100010032
:10033000010001003E0F01003F0F0100010001001C
:1003400001000100010001000100010001000100A5
:1003500001000100000005010902A1018502090157
:10036000A10005091901290515002501950575014B
:10037000810295017503810105010930093115815B
:10038000257F95027508810609381581257F95011D
:1003900075088106050C0A38021581257F950175BF
:1003A000088106C0C005010980A10185031601006E
:1003B0002603001A81002A8300751095018100C070
:1003C000050C0901A1018504160100269C021A01F1
:1003D000002A9C02751095018100C005010906A143
:1003E000018505050719E029E71500250195087520
:1003F00001810205081901290595057501910295EC
:1004000001750391010507190029EF1500250195D4
:10041000F075018102C005010906A101050719E077
:1004200029E71500250195087501810295017508D8
:1004300081010508190129059505750191029501AC
:10044000750391010507190029FF150026FF009586
:100450000675088100C009023B00020100A0FA09EC
:1004600004000001030101000921110100012240E3
:10047000000705810308000A0904010001030000C8
:100480000009211101000122C0000705820320009C
:100490000A1201100100000008EDFE07130100011F
:1004A00002030104033000000016034500720067D8
:1004B000006F0044006F007800200045005A0000E3
:1004C0000016034500720067006F0044006F00785B
:1004D00000200045005A0000000403090400112414
:1004E0001FBECFEFDAE0DEBFCDBF11E0A0E0B1E08C
:1004F000EEE7F4E402C005900D92AC3BB107D9F7EA
:1005000022E0ACEBB1E001C01D92A33FB207E1F7DE
:100510000E9419190C943D220C9400008F929F9216
:10052000AF92BF92CF92DF92EF92FF920F931F9301
:10053000CF93DF93CDB7DEB728970FB6F894DEBF21
:100540000FBECDBFFC01F080118183819481892B86
:1005500009F4BDC51F3F21F40FEFF01609F4B7C52C
:100560006F0185E0DE01119601900D928A95E1F709
:10057000F601228189819A81222349F00E9449143F
:10058000082F682F89819A810E94E91403C00E9474
:10059000BC14082F26E0129FF001112434E5039FBC
:1005A000E00DF11D1124EF0DF11DEE0FFF1FE25ABA
:1005B000FE4F05911491F6018281053FFCE51F076E
:1005C000A1F5882309F483C51CC01092BD01F60172
:1005D00092810531FCE51F0708F40DC10C3DECE5E7
:1005E0001E0709F466C108F414C10D3D3CE513076C
:1005F00009F465C10E3D1C4509F006C2992309F4B2
:1006000066C528960FB6F894DEBF0FBECDBFDF914A
:10061000CF911F910F91FF90EF90DF90CF90BF90FF
:10062000AF909F908F900C94571E882309F498C028
:10063000033E2CE51207C1F050F4013E8CE518078B
:1006400081F0023E9CE51907B9F481E010C0043E38
:10065000ECE51E0759F0053EFCE51F0769F484E050
:1006600006C010927F0205C082E001C083E0809343
:100670007F020E94E00A74C0013020E8120708F4EB
:100680006FC07801E894F7F88091D9018093BC019C
:100690001092D90180917F02813071F048F0823050
:1006A000D9F08430F9F486EE0E941C1888E118C055
:1006B00082EE0E94861F16C080EE0E94861F81EE89
:1006C0000E94861F88E10E941C1881EE0E941F1F55
:1006D00080EE0E941F1F06C082EE0E94861F87E5E3
:1006E0000E941C188FE39CE90197F1F700C00000FD
:1006F0005CE0A52EB12CC7010A2C02C09695879507
:100700000A94E2F7282F2F7041F0822F90E02A30D0
:1007100010F44D9604C0069702C087E290E00E9454
:100720001C1894E0A91AB108ECEFAE16EFEFBE0664
:1007300011F780917F02813039F040F0823031F042
:10074000843051F488E206C08CE204C082EE0E943C
:100750001F1F02C00E941C188091BC018093D90108
:10076000003FFCE51F07C1F188F4083D3CE5130795
:10077000D9F0093D8CE51807D9F1073D9CE519072B
:1007800009F023CF26E241EE61EE11C0023FECE515
:100790001E0751F128F1033F2CE5120709F015CF90
:1007A00027E246EE66EE03C027E245EE65EEC6019F
:1007B00028960FB6F894DEBF0FBECDBFDF91CF9164
:1007C0001F910F91FF90EF90DF90CF90BF90AF906F
:1007D0009F908F900C94810A26E240EE60EEE7CF66
:1007E00027E244EE64EEE3CF26E242EE62EEDFCF94
:1007F00028E241E0DBCF02302CE5120708F066C0AA
:1008000001153CE5130751F001301C4509F448C0BF
:10081000FBC006311C4509F4C3C0F6C0992309F496
:1008200056C41092D9010E94F4179FEFE4E3FCE054
:100830009150E040F040E1F700C00000F89481E002
:100840008093E00080E28093D8001092C9008FE18D
:100850009EE40197F1F700C000001DBA10926800F5
:100860001CBC10BE1FBA10927A0010926E0010923B
:100870006F0010927100109272001092C9001092D5
:10088000BC0014B817B81AB81DB810BA1092BC0042
:1008900015B818B81BB81EB811BA0C94003F17C48D
:1008A000992309F414C48091AE0281608093AE0252
:1008B0000EC4992309F40BC41092BD0208C49923F5
:1008C00009F405C482E08093BD0201C4992309F4B0
:1008D0009BC080E090E00E94A8208D3E9E4F11F0CA
:1008E0000E94571E84E090E00E94A02090E0909328
:1008F000920280939102F801E350FC45E231F10548
:1009000030F4EA5AFF4F809191020C940A218091B1
:100910009102816027C0826025C0846023C080610D
:1009200021C080621FC080641DC080681BC08460BD
:10093000886018C08E7F16C08D7F14C08B7F12C058
:100940008F7E10C08F7D0EC08F7B0CC08F770AC04A
:100950008B7F877F07C087FB222720F991E09227B2
:1009600090FB87F9809391026091910284E090E07E
:100970000E94AE201092D90128960FB6F894DEBFDF
:100980000FBECDBFDF91CF911F910F91FF90EF90E0
:10099000DF90CF90BF90AF909F908F900C94F41702
:1009A0008091D901992389F0982F9A7A81E009F4EE
:1009B00080E08093BE01811102C069E201C065E35D
:1009C0008EEB92E00E941F1E0BC08091BE01811130
:1009D00002C069E201C065E38EEB92E00E94F41D63
:1009E00028960FB6F894DEBF0FBECDBFDF91CF9132
:1009F0001F910F91FF90EF90DF90CF90BF90AF903D
:100A00009F908F900C94B41EF60100811181992360
:100A100049F0C8010E944914F82E682FC8010E94AD
:100A2000E91404C0C8010E94BC14F82EB8018F2D2F
:100A30000E94E60A182F382FF601258122952F7083
:100A4000028101111092E2028091E0028770A9F008
:100A5000002399F080E2810F883078F082E02F83C4
:100A600038879E830E94021F8091E0028770EE24E7
:100A7000E3942F8138859E818111E12CA92EA294C7
:100A80004FE0A422B12CFCE0AF16B10408F0E8C29C
:100A9000F501E859FF4F0C940A21892F807F9F7040
:100AA000F92E882319F0F29480EFF8220023B9F090
:100AB000FF2009F466C280E2810F883010F0311106
:100AC00006C09091D901F92AF092D90105C0909100
:100AD000E202F92AF092E2020E94B41E52C2812F71
:100AE00038870E941F1F3885FF2009F4B9C2105EA5
:100AF000F094183010F0311106C09091D901F9220C
:100B0000F092D90105C09091E202F922F092E2023E
:100B10000E94B41EA5C2492F407F892F8F7040329A
:100B200011F08295807F332319F0313019F12BC0F9
:100B30000023B1F09091E502222381F0213071F47D
:100B4000182F192B911709F48BC20E94A91D90939D
:100B5000E4028093E3021093E50282C2892B91C1E3
:100B6000222319F0213009F47BC28E830E94A91E32
:100B70008E818DC1002321F0223008F071C281C125
:100B800021116EC284C1002321F0222309F479C10E
:100B9000F8C1222309F47BC106C2292F2695269588
:100BA000237030E02115310521F02130310559F055
:100BB00057C2002319F0812F937002C080E090E0AB
:100BC0000E945F0A5BC2002319F0812F937002C05C
:100BD00080E090E00E94490A51C20023F9F0153FDD
:100BE00051F0163F71F0143FA9F48091BF0190912C
:100BF000C00181600BC08091BF019091C0018260F3
:100C000005C08091BF019091C00184609093C001A4
:100C10008093BF01812F0E94F11C1EC0153F51F02F
:100C2000163F71F0143FA9F48091BF019091C0016B
:100C30008E7F0BC08091BF019091C0018D7F05C058
:100C40008091BF019091C0018B7F9093C0018093F0
:100C5000BF01812F0E94271C0E94B51D0FC2892F42
:100C6000837009F079C0011107C2812F82958695A2
:100C70008770880F880F412F4F7050E060E070E060
:100C80004A015B01082E04C0880C991CAA1CBB1CDD
:100C90000A94D2F714FF14C04FE050E060E070E017
:100CA0008A019B0104C0000F111F221F331F8A9568
:100CB000D2F7B901A801409550956095709503C091
:100CC00040E050E0BA01969596959370892F90E098
:100CD0000091E6021091E7022091E8023091E902CA
:100CE00082309105A9F083309105E9F0019759F020
:100CF000482959296A297B29CB01BA01602371232C
:100D00008223932326C0802A912AA22AB32A1BC0B9
:100D1000482959296A297B29CB01BA016027712703
:100D20008227932716C0CB01BA0160237123822347
:100D300093230E94D6154091E6025091E7026091FC
:100D4000E8027091E902CB01BA01682979298A2960
:100D50009B290E94D61590C1002319F0892F81701C
:100D600001C08695882309F487C1812F82958695D5
:100D70008770880F880F412F4F7050E060E070E05F
:100D80004A015B01082E04C0880C991CAA1CBB1CDC
:100D90000A94D2F714FF14C04FE050E060E070E016
:100DA0008A019B0104C0000F111F221F331F8A9567
:100DB000D2F7B901A801409550956095709503C090
:100DC00040E050E0BA01969596959370892F90E097
:100DD0000091790210917A0220917B0230917C027D
:100DE00082309105A9F083309105E9F0019759F01F
:100DF000482959296A297B29CB01BA01602371232B
:100E00008223932326C0802A912AA22AB32A1BC0B8
:100E1000482959296A297B29CB01BA016027712702
:100E20008227932716C0CB01BA0160237123822346
:100E300093230E9419154091790250917A02609192
:100E40007B0270917C02CB01BA01682979298A2939
:100E50009B290E94191510C1412F50E0FA01E05E54
:100E6000F109E531F10508F087C0EC58FF4F0C940B
:100E70000A211F70892F8F71002331F00E94B51550
:100E8000812F0E941218ECC00E949015812F0E94A1
:100E90000718E6C0002311F12111E2C0292F2F719C
:100EA00081E090E0A0E0B0E0AC01BD0104C0440FDF
:100EB000551F661F771F2A95D2F78091790290916E
:100EC0007A02A0917B02B0917C028A019B010827E3
:100ED00019272A273B27C901B80127C0223008F06B
:100EE000BFC0DCCF002339F0892F8F710E94B51568
:100EF000B7C00023C9F3892F8F710E949015B0C02D
:100F0000002381F0292F2F7181E090E0A0E0B0E074
:100F1000BC01CD0104C0660F771F881F991F2A9559
:100F2000D2F703C060E070E0CB010E94191598C0B1
:100F30000023B1F0192F1F71812F0E94B51528E0F1
:100F4000129FC001112483608093E002812F0E94D0
:100F5000B5150E94A91D9093DF028093DE0280C028
:100F600081E02F830E94021F2F81223008F478C075
:100F700082E00E94021F74C0002339F0222309F48A
:100F8000B3CF812F0E94861F6BC0222309F4B3CFF9
:100F9000193349F43FEF87EE93E0315080409040A1
:100FA000E1F700C00000812F0E941F1F59C0323F8F
:100FB000B1F028F4303F49F0313FF9F028C0343F18
:100FC000B9F058F0353F71F022C0002309F456C043
:100FD0009091090281E0892708C081E008270093E9
:100FE00009024CC001114AC081E08093090246C049
:100FF000011144C01092090241C0002329F08091E0
:101000000802882329F329C0222311F337C08091D5
:1010100008022223C1F0882341F09091090281E067
:1010200089278093090210920802812F002319F06A
:101030000E94861F23C00E941F1F86E0F6011192A6
:101040008A95E9F71BC08823C9F0011117C0909158
:10105000090281E0892780930902109208020EC0DC
:10106000F8E0AF16B10441F04CF01AE0A11AB10853
:1010700022E0A216B10410F40E94750AEE2039F1A4
:101080008091E00280FD23C0F6011282859585954E
:1010900085950E94B515C6010E948E028091E002DE
:1010A00085958595859528960FB6F894DEBF0FBE79
:1010B000CDBFDF91CF911F910F91FF90EF90DF9007
:1010C000CF90BF90AF909F908F900C9490152896E2
:1010D0000FB6F894DEBF0FBECDBFDF91CF911F9149
:1010E0000F91FF90EF90DF90CF90BF90AF909F90C7
:1010F0008F9008959091910292FF0DC0282F287132
:10110000283019F4877F846006C0282F247124308A
:1011100011F48B7F886093FF0DC0282F2871283130
:1011200019F4877E846106C0282F2471243111F4BC
:101130008B7E886194FD877E0895CF93E82F87305A
:1011400058F58091070190910801892B09F042C060
:10115000CE2F80E40E94170F90930801809307011F
:10116000892BB1F482E10E94F00E909308018093E4
:101170000701892B69F481E090E001C0880FCA95CE
:10118000EAF780950E94F00E909308018093070182
:1011900084E98093BC001EC090E0FC013797E730E3
:1011A000F105C0F4E757FF4F0C940A21209A2898C4
:1011B00011C0219A29980EC0229A2A980BC0239A0E
:1011C0002B9808C0529A5A9805C0539A5B9802C04F
:1011D0003E9A4698CF910895CF93DF93873008F0D9
:1011E00047C08091070190910801892B09F049C0FF
:1011F00080E40E94170F9093080180930701892BC8
:1012000011F080E031C083E10E94F00E909308015C
:1012100080930701892BA9F781E40E94170F90930F
:10122000080180930701892B61F784E88093BC0053
:101230000E94A91DEC019091BC0097FD0EC00E9478
:10124000A91D8C1B9D0B84369105A8F38EEF9FEF93
:101250009093080180930701D4CF8091BB008095C3
:10126000109208011092070194E99093BC000AC003
:101270009FB18FB1807F869586959370892B8095DD
:1012800001C080E0DF91CF910895DF92EF92FF924D
:101290000F931F93CF93DF93CDB7DEB767970FB64A
:1012A000F894DEBF0FBECDBFF42E4B8BD52E5C8BDA
:1012B000E62E6D8B7E8B8F8B0E891F890115110594
:1012C000B9F18FEF581302C0481791F1EF2DF0E0FC
:1012D00041E050E00F2C01C0440F0A94EAF78D2D35
:1012E00090E0EE2019F02091090205C0DC01A65320
:1012F000BE4F2C9124232223A1F056E0589F900149
:10130000599F300D1124E20FF31FEE0FFF1FED5E0A
:10131000FE4FF080D180FC01E653FE4F9081492BB7
:1013200006C0FC01E653FE4F409580814823408370
:10133000FE013D9686E0DF011D928A95E9F70E9445
:10134000A91D2091DE023091DF028217930788F0F9
:101350000E94A91D2091DE023091DF0282179307BF
:1013600091F08091E00282FD0EC082E00E94021F97
:101370000AC00E94A91D2091DE023091DF02821B6B
:10138000930B019771F70E94271481110E94A91EE7
:10139000FD86DE86EF86198B088B86E0FE013D9682
:1013A000DE01179601900D928A95E1F7CE0107961E
:1013B0000E944516811136C086E0FE013796DE0197
:1013C000119601900D928A95E1F77F816885EA85F3
:1013D000FB85309739F16F3F11F47F3F19F1209170
:1013E000100230E0C90101968770992740914102AF
:1013F00050E08417950779F179836A83FD83EC8344
:1014000096E0929FD001939FB00D1124AF5EBD4F27
:10141000FE01319601900D929A95E1F780931002AA
:101420000E94E01516E08091410290911002891708
:1014300011F1189FC00111248F5E9D4F0E94451627
:101440008823C9F08091410290E001968770992726
:1014500080934102E8CF1092D9010E94F4171092B4
:10146000100210924102EAE0F2E086E0DF011D92F4
:101470008A95E9F7D7CF67960FB6F894DEBF0FBE0F
:10148000CDBFDF91CF911F910F91FF90EF90DF9033
:1014900008952091C8013091C9018217930771F016
:1014A0009093C9018093C801E0919302F091940256
:1014B000309721F00084F185E02D09940895209162
:1014C000C6013091C7018217930771F09093C7014D
:1014D0008093C601E0919302F0919402309721F03D
:1014E0000680F781E02D09940895E0919302F09130
:1014F0009402309721F00190F081E02D099480E072
:1015000008950F931F93CF93DF93C62FD42F022FED
:10151000FC01828110E2160F8823B9F06093BD01AF
:101520000E94A91D9093C5018093C401183008F052
:1015300042C0C77081E001C0880FCA95EAF7DF9109
:10154000CF911F910F910C941218183048F481E03C
:10155000962F977001C0880F9A95EAF70E94071896
:101560008091BD018C1327C08091C4019091C50169
:101570000E947F1D883C9105F0F4C0E2CD0FC83079
:1015800048F481E09D2F977001C0880F9A95EAF783
:101590000E941218802F0E941C18C83060F4D77067
:1015A00081E001C0880FDA95EAF7DF91CF911F91B2
:1015B0000F910C940718DF91CF911F910F9108950F
:1015C00060917F028CE090E00C94AE20CF93DF938B
:1015D00026E0729FF001112434E5839FE00DF11D98
:1015E0001124E60FF11DEE0FFF1FE25AFE4FC591C9
:1015F000D491CE01C238D10549F1B0F4C133D1053F
:1016000009F464C048F4C932D10509F458C0CA329B
:10161000D10509F462C068C0C533D10509F448C0DA
:10162000C933D10599F060C0C33ED10541F138F40A
:10163000C03ED10591F0C23ED105B1F055C0C63EC5
:10164000D10521F1C73ED10561F14EC02091910233
:1016500020FD14C221FD12C213C22091910220FF6D
:101660000FC289E390E00CC22091910222FF08C2D0
:101670008091910284FDB4C183EE90E001C280911B
:10168000910282FFF5CF82EE90E0FAC120919102A3
:1016900023FFF6C18091910284FDA2C187EE90E004
:1016A000EFC18091910283FFF5CF86EE90E0E8C113
:1016B0002091910225FFE4C189E290E0E1C12091EF
:1016C000910225FFDDC185E390E0DAC1209191020E
:1016D00026FFD6C18AE290E0D3C12091910226FF75
:1016E000CFC181E390E0CCC1C11520E5D20708F05D
:1016F00047C0C11530E4D30708F034C1C83ED10556
:1017000018F5C03ED10508F0BBC1C83AD10570F448
:10171000C53AD10508F0B0C0C130D10509F4B0C157
:1017200008F45EC1249708F45BC1AAC1CF3BD10580
:1017300008F4ADC0C03CD10508F452C1FE01EE0F63
:10174000FF1FEA52FE4F02C1C11520E2D20760F42A
:10175000C11531E0D30708F093C1C03FD10508F4AB
:101760003FC1CE0190658CC1C11580E3D80708F058
:10177000F0C0FE01FF70EE0FFF1FEA5AFC4FE6C0FB
:10178000C11595E5D90708F044C0C11524E5D20775
:1017900008F000C1C11532E5D30710F5C11581E588
:1017A000D80708F0E3C02C2F237081E090E002C03E
:1017B000880F991F2A95E2F79C689E0174E0369580
:1017C00027957A95E1F72370922BEC2FEF70E69531
:1017D000E69530E2E39FF00111248E2B9F2B50C140
:1017E0008C2F86958695AE0143705527C115D3453C
:1017F00008F0C1C090E2899F9001112481E090E03F
:1018000002C0880F991F4A95E2F7822B932B9C68A0
:1018100037C1C1152AE5D207A0F4C11539E5D307B0
:1018200008F0C6C0C11586E5D80708F4B8C0C115D0
:1018300098E5D90708F4D4C09C2F8827806F906A58
:101840001FC1C1152BE5D20708F4CAC0CE01C115CE
:101850003CE5D30708F4C1C090568115904208F0CA
:10186000BFC08D2F8F710E947A08FE01FF27F062A2
:101870008F719F01382BAFC0C53AD10509F4B3C0B1
:10188000C63AD10509F0B2C082E890E4F9C0C83A7E
:10189000D10509F4AEC0C93AD10509F4ADC0CA3AC0
:1018A000D10509F4ACC0CB3AD10509F4ABC0CC3AB0
:1018B000D10509F4AAC0CB3BD10509F4A9C0CC3BA2
:1018C000D10509F4A8C0CD3AD10509F4A7C0C03BA1
:1018D000D10509F4A6C0CE3AD10509F4A5C0CF3A86
:1018E000D10509F4A4C0C13BD10509F4A3C0C23B92
:1018F000D10509F4A2C0C33BD10509F4A1C0C43B82
:10190000D10509F4A0C0C53BD10509F49FC0C63B71
:10191000D10509F49EC0C73BD10509F49DC0C83B61
:10192000D10509F49CC0C93BD10509F49BC0CD3B4E
:10193000D10509F49AC0CE3BD10509F499C0CA3B40
:10194000D10509F498C080E094E49AC085919491FF
:1019500097C09E013327C901D3FF02C0986C90C085
:10196000906C8EC0CE019F70906A8AC09C2F882791
:10197000816F906A85C090E2899F9001112481E077
:1019800090E002C0880F991F4A95E2F7822B932BB3
:101990009A6876C09C2F8827846F906A71C08C2FBC
:1019A0000E947A088F7190E0982F8827906268C013
:1019B0008C2F8F700E947A08FE0194E0F695E795CF
:1019C0009A95E1F7EF70F0E0FE2FEE27F06A8F7046
:1019D000806E9F01282BC90153C09927906650C083
:1019E00080E090E04DC081E890E44AC083E890E454
:1019F00047C082EE94E444C089EE94E441C08AEE8C
:101A000094E43EC085EB94E43BC086EB94E438C09C
:101A100083EB94E435C084EB94E432C087EB94E428
:101A20002FC08CEC94E42CC08DEC94E429C083E8A6
:101A300095E426C08AE895E423C082E995E420C0B5
:101A400084E995E41DC081E296E41AC083E296E43D
:101A500017C084E296E414C085E296E411C086E2E1
:101A600096E40EC087E296E40BC08FE694E408C0CB
:101A700080E794E405C08AE296E402C080EE90E03C
:101A8000DF91CF91089580E290E0909308018093D8
:101A900007018091C301811111C01092B9008CE03F
:101AA0008093B80081E08093C3012FEF83ED90E332
:101AB000215080409040E1F700C0000080E40E9487
:101AC000170F9093080180930701892B09F040C0FC
:101AD00080E00E94F00E9093080180930701892B0B
:101AE000B9F580E00E94F00E909308018093070101
:101AF000892B71F58FE30E94F00E9093080180937B
:101B00000701892B29F584E98093BC0080E40E94B9
:101B1000170F9093080180930701892BC9F48CE07B
:101B20000E94F00E9093080180930701892B81F4A5
:101B300080E00E94F00E9093080180930701892BAA
:101B400039F48FE30E94F00E90930801809307010F
:101B500084E98093BC0080910701089556985E98AF
:101B600025982D9826982E9827982F988FEF90E0FB
:101B7000909389008093880090938B0080938A00D3
:101B800090938D0080938C00259A2D9A2FEF80E7FB
:101B900092E0215080409040E1F700C00000269A7A
:101BA0002E9A2FEF80E792E0215080409040E1F79D
:101BB00000C00000279A2F9A2FEF80E792E0215073
:101BC00080409040E1F700C0000025982D982FEF4D
:101BD00080E792E0215080409040E1F700C0000093
:101BE00026982E982FEF80E792E021508040904079
:101BF000E1F700C0000027982F9856985E98259826
:101C00002D9826982E9827982F98089584B1807F34
:101C100084B985B1807F85B98AB1837F8AB98BB158
:101C2000837F8BB93E984698089580B38C7080BBB3
:101C300081B3836F81BB0895AF92BF92CF92DF9241
:101C4000EF92FF920F931F93CF93DF938091070141
:101C500090910801892B91F08091C2018F5F809350
:101C6000C20181110BC00E94430D90E090930801C6
:101C700080930701892B11F40E94AE0D03E812E056
:101C80004AE8E42E42E0F42E6801C0E0B12C37E0CF
:101C9000A32EAC0E8C2F0E949D088A2D0E949D08B9
:101CA0008C2F0E94EC08D6019C91981719F08C9308
:101CB000D1E001C0D0E08A2D0E94EC08F7019081AC
:101CC000981719F0808381E001C080E0D82BBD2AED
:101CD0000E94060ECF5FFFEFCF1ADF0A6FEFE61A02
:101CE000F60AC730A1F60E94A91D6AEF70E00E94B3
:101CF000E220782F6091C101662381F11092C10129
:101D0000E0917D02F0917E02DF01AC5ABF4FF12CD1
:101D10002BEFE22ECAEFD0E0AF014A5F5F4F208188
:101D20002B3F99F0C22ED12C721720F09C012C1958
:101D30003D0905C09E012C193D09280F391F25308A
:101D4000310514F0E08201C0F62E3196E417F50754
:101D500031F7EA17FB0701F7F092C101BB20A1F1AF
:101D600040917D0250917E026091C101E6E9F2E06E
:101D7000EE24E394F12C9EE0D92EDE0ED8019D9145
:101D80008D0180819827DA0120E030E0E701022E02
:101D900001C0CC0F0A94EAF7CC2EC92241F0CC90B6
:101DA000DBEFBD2ECB1003C07C938C2761E0119636
:101DB0002F5F3F4F2630310549F74A5F5F4F8193D0
:101DC000DE12DCCF6093C10181E0DF91CF911F91E2
:101DD0000F91FF90EF90DF90CF90BF90AF9008955C
:101DE000CF93DF938093BB0084E88093BC000E9474
:101DF000A91DEC019091BC0097FD0AC00E94A91D8D
:101E00008C1B9D0B84369105A8F38EEF9FEF0CC0C1
:101E10002091B900287F81E090E0283211F480E021
:101E200090E0919581959109DF91CF9108950F935D
:101E30001F93CF93DF93C82F1092BC0084EA809346
:101E4000BC000E94A91D8C019091BC0097FD0AC0A6
:101E50000E94A91D801B910B84369105A8F38EEF7B
:101E60009FEF2AC09091B900987F983041F09091EF
:101E7000B900987F903119F08FEF9FEF1DC0C0938C
:101E8000BB0084E88093BC000E94A91DEC019091E6
:101E9000BC0097FD08C00E94A91D8C1B9D0B8436B9
:101EA0009105A8F3DCCF8091B900887F883111F0CB
:101EB000803411F780E090E0DF91CF911F910F9176
:101EC0000895CF92DF92FF920F931F93CF93DF93EA
:101ED0001F92CDB7DEB7F82E8B0199830E9424188C
:101EE000998181111CC0CF2CD92E01151105B1F09B
:101EF0008091E80085FD0AC08091E8008E7780938C
:101F0000E8000E942418882381F309C0F60181911A
:101F10006F018093F10001501109E7CF80E00F902D
:101F2000DF91CF911F910F91FF90DF90CF90089597
:101F30001F93CF93DF93CDB7DEB7AA970FB6F89470
:101F4000DEBF0FBECDBFE0E0F2E088E08E0F9091E3
:101F5000F10091938E13FBCF80910102833009F43D
:101F600060C030F4813071F0823009F49CC0B3C09D
:101F70008A3009F488C08B3009F46BC0893009F0CD
:101F8000AAC020C080910002813A09F0A4C08091CB
:101F9000E800877F8093E800809104029091050219
:101FA000892B21F460E28CED91E003C060E080E0D9
:101FB00090E070E00E94AA188091E8008B778093EF
:101FC000E80089C080910002813209F084C08091CC
:101FD000040290910502029708F07DC08091E8000C
:101FE000877F8093E8008091E80082FD05C08091A2
:101FF000FE018111F8CF6FC02091F3008091F200B3
:1020000090E0922B029729F48091F1008B7F813030
:1020100021F48091F1008093DB018091E8008B77BF
:1020200056C080910002813A09F055C080910402A7
:1020300090910502892B09F04EC08091E800877FBE
:102040008093E8008091E80080FFFCCF809106013A
:1020500039C0809100028132F1F5809104029091A3
:102060000502892BC1F58091E800877F8093E80005
:102070000E94561880910202809306011092D901A5
:102080000E94F41728C080910002813221F58091CE
:10209000E800877F8093E8000E9456188091030231
:1020A0008093DA0118C080910002813AA1F48091F6
:1020B000E800877F8093E8008091E80080FFFCCFF4
:1020C0008091DA018093F1008091E8008E7780930F
:1020D000E8000E9456188091E80083FFD6C18091E5
:1020E000000290910102492F50E04A30510508F05A
:1020F000CCC1FA01E057FF4F0C940A21803821F03F
:10210000823809F0C2C108C08091FC019091FD01A4
:10211000992389F082600FC0809104028F7087300C
:1021200008F0B3C18093E9008091EB0085FB88271C
:1021300080F91092E9009091E800977F9093E80071
:102140008093F1001092F10074C1282F2D7F09F0C7
:102150009CC1882319F0823061F097C180910202FE
:10216000813009F092C1933009F080E08093FD0145
:102170002EC08091020281112AC0809104028F70CA
:102180002FEF280F263008F080C18093E9002091BE
:10219000EB0020FF1CC0933021F48091EB008062A3
:1021A00014C09091EB0090619093EB0021E030E03F
:1021B000A90102C0440F551F8A95E2F74093EA0037
:1021C0001092EA008091EB0088608093EB001092FF
:1021D000E9008091E800877F2FC1811156C11091DD
:1021E00002021F778091E3008078812B8093E300C7
:1021F0008091E800877F8093E8000E9456188091C4
:10220000E80080FFFCCF8091E30080688093E300CA
:10221000111102C082E001C083E08093FE0135C14C
:102220008058823008F031C18091020290910302FF
:102230008C3D53E0950779F583E08A838AE28983B0
:102240004FB7F894DE01139620E03EE051E2E32F11
:10225000F0E050935700E49120FF03C0E295EF7047
:102260003F5FEF708E2F90E0EA3010F0C79601C00C
:10227000C0968D939D932F5F243149F74FBF809176
:10228000E800877F8093E8006AE270E0CE01019663
:102290000E94AA18BDC04091040250910502292F46
:1022A000332723303105B9F06CF42130310509F4BE
:1022B000FBC02230310509F0E8C08BE390E0E6E591
:1022C000F4E054C02132310509F433C02232310523
:1022D00009F43CC0DAC0992781309105D1F05CF453
:1022E000892B09F0D2C0E9EDF4E0E4918E2F90E063
:1022F000E9EDF4E038C08230910599F0039709F0D8
:10230000C4C0E3EAF4E0E4918E2F90E0E3EAF4E065
:102310002AC0E1ECF4E0E4918E2F90E0E1ECF4E0EF
:1023200022C0E9EAF4E0E4918E2F90E0E9EAF4E0DB
:102330001AC04115510509F4BCC04130510509F0DE
:10234000A4C089E090E0E1E8F4E010C04115510537
:1023500009F4B4C04130510509F097C080EC90E019
:10236000E6E5F3E003C0009709F48FC02091E80090
:10237000277F2093E800209106023091070228175A
:10238000390708F4C90140E0009789F12091FE0166
:10239000222309F43DC02530D9F12091E80023FD26
:1023A00037C02091E80022FD2FC02091E80020FFD7
:1023B000EBCF4091F3002091F20030E0342B0097F6
:1023C00059F02830310540F444914093F1003196A2
:1023D00001972F5F3F4FF3CF41E02830310509F0DF
:1023E00040E02091E8002E772093E800CDCF411106
:1023F000CDCF0AC08091FE01882351F0853041F095
:102400008091E80083FD04C08091E80082FFF2CF54
:102410008091E8008B778093E80037C08038A9F579
:102420008091E800877F8093E8008091FF0180938E
:10243000F1008091E8008E778093E8000E945618A2
:1024400024C0811122C0109102021230F0F4809158
:10245000E800877F8093E8001093FF010E945618E0
:10246000111106C08091E30087FD02C081E001C028
:1024700084E08093FE0142E061EC81E00E947518E7
:1024800042E261EC82E00E9475188091E80083FFCF
:102490001AC08091E800877F8093E8008091EB006C
:1024A00080628093EB000FC082E190E0E1E9F4E00C
:1024B0005DCF89E090E0E8E6F4E058CF80E490E07A
:1024C000E6E1F4E053CFAA960FB6F894DEBF0FBE54
:1024D000CDBFDF91CF911F9108951F920F920FB63C
:1024E0000F9211242F933F934F935F936F937F939A
:1024F0008F939F93AF93BF93CF93DF93EF93FF930C
:10250000C091E900CF708091EC00D82FD17080FD90
:10251000D0E81092E9008091F000877F8093F0006E
:1025200078940E94980F1092E9008091F0008860E2
:102530008093F000CD2BCF70C093E900FF91EF9115
:10254000DF91CF91BF91AF919F918F917F916F91CB
:102550005F914F913F912F910F900FBE0F901F9061
:102560001895E8EDF0E080818E7F80831092E20084
:102570001092DA001092E100A0EEB0E08C91816040
:102580008C9380818F77808319BCA7EDB0E08C910C
:102590008E7F8C9380818F7E80831092D8010895E6
:1025A000CF92DF92EF92FF920F931F93CF93DF931F
:1025B000C8EDD0E088818F7E8883E7EDF0E08081F0
:1025C0008160808384E082BF81E08093D80188812C
:1025D0008E7F888302EE10E0F80110821092DA00FC
:1025E00081EEC82ED12CF601108288818F778883E6
:1025F00088818068888388818F7D888319BC109248
:10260000FE011092FF011092FD011092FC0190EE6C
:10261000E92EF12CF70180818B7F80838881816096
:10262000888342E060E080E00E947518F6018081B6
:102630008E7F8083F80180818160808380818860C3
:102640008083F70180818E7F808388818061888389
:10265000DF91CF911F910F91FF90EF90DF90CF907E
:1026600008951F920F920FB60F9211242F933F934C
:102670004F935F936F937F938F939F93AF93BF938A
:10268000EF93FF938091E10082FF09C08091E20007
:1026900082FF05C08091E1008B7F8093E1008091F3
:1026A000DA0080FF2AC08091D80080FF26C0809188
:1026B000DA008E7F8093DA008091D90080FF18C005
:1026C00080E189BD82E189BD09B400FEFDCF81E0D2
:1026D0008093FE018091D80181110FC00E94B11238
:1026E0000E94D0128091E20084608093E20005C0D5
:1026F00019BC1092FE011092D8018091E10080FF78
:1027000017C08091E20080FF13C08091E2008E7FAD
:102710008093E2008091E20080618093E2008091EA
:10272000D80080628093D80019BC85E08093FE01B8
:102730008091E10084FF34C08091E20084FF30C0CA
:1027400080E189BD82E189BD09B400FEFDCF8091A1
:10275000D8008F7D8093D8008091E1008F7E809398
:10276000E1008091E2008F7E8093E2008091E200A0
:1027700081608093E2008091FF01882311F084E062
:1027800007C08091E30087FD02C081E001C083E0C3
:102790008093FE011092D9010E94F4170E94750ADD
:1027A0008091E10083FF27C08091E20083FF23C076
:1027B0008091E100877F8093E10082E08093FE01B9
:1027C0001092FF018091E1008E7F8093E100809163
:1027D000E2008E7F8093E2008091E200806180932E
:1027E000E20042E060E080E00E9475188091F00015
:1027F00088608093F000FF91EF91BF91AF919F911E
:102800008F917F916F915F914F913F912F910F9099
:102810000FBE0F901F9018951092E2021092E102E5
:102820000E94B41EE4EAF2E086E0DF011D928A9580
:10283000E9F71092AA021092EE020E94B51D80E004
:1028400090E00E945F0A80E090E00C94490A0E94A8
:10285000A91D2091E3023091E4028217930758F0FA
:102860000E94A91D21E04091E3025091E4028417E7
:10287000950769F40BC00E94A91D2091E3023091D5
:10288000E402821B930B21E0019709F420E0822FE0
:102890000895BF92CF92DF92EF92FF920F931F9312
:1028A000CF93DF938C01C090E602D090E702E090D6
:1028B000E802F090E9028091790290917A02A09169
:1028C0007B02B0917C02C82AD92AEA2AFB2ACFE1EE
:1028D000D0E0D701C6010C2E04C0B695A7959795F8
:1028E00087950A94D2F780FF07C0BC2EB8018C2FC1
:1028F0000E94E60A019719F4219758F7B12C8B2D05
:10290000DF91CF911F910F91FF90EF90DF90CF90CB
:10291000BF900895CF93DF93EC010E944914BE014C
:102920000E94E60ADF91CF9108950E948A14292F10
:102930002F7092959F70E92FF0E03297EE30F105FD
:10294000B8F4E656FF4F0C940A21803F99F018F432
:10295000803E70F40FC0843F59F40CC0803E50F0AC
:10296000813F31F407C0822F86958695869508951C
:1029700080E0089581E00895292F220F920F990F8A
:10298000890F682F669566956695982F977085E0F4
:10299000689FB001112440E050E080E0FA01E60FAA
:1029A000F71FEE5BFD4F208130E0092E02C0369507
:1029B00027950A94E2F721703327042E01C0220FD5
:1029C0000A94EAF7822B4F5F5F4F4530510531F78C
:1029D0000895292F220F920F990F890FA82FA695DE
:1029E000A695A695877051E001C0550F8A95EAF724
:1029F00085E0A89FD001112420E030E070E0F901CB
:102A0000EA0FFB1FEE5BFD4F4081CB01022E02C09F
:102A1000969587950A94E2F7817099278195842786
:102A20008523842780832F5F3F4F2530310539F779
:102A300008950F931F93AB01BC01CB01AA27BB27BD
:102A40000097A105B10511F0E0E103C0DB01CA0167
:102A5000E0E0092F1A2F2B2F33270115110521052F
:102A6000310519F0E85FD901C8018C019D01F4E03E
:102A70003695279517950795FA95D1F70115110504
:102A80002105310519F0EC5FD901C8018C019D01C8
:102A9000F2E03695279517950795FA95D1F7011528
:102AA00011052105310519F0EE5FD901C801B69570
:102AB000A79597958795892B8A2B8B2B09F0EF5F2C
:102AC00056985E9825982D9826982E9827982F9896
:102AD0008E2F90E0FC013197E730F105A8F4E8551E
:102AE000FF4F0C940A21259A2D9A0EC0259A2D9AF3
:102AF000269A2E9A09C0259A2D9A04C0259A2D9AB5
:102B0000269A2E9A279A2F9A4093790250937A0206
:102B100060937B0270937C021F910F910C940C14B4
:102B20000F931F9341E050E060E070E004C0440F59
:102B3000551F661F771F8A95D2F74095509560956F
:102B400070958091790290917A02A0917B02B09168
:102B50007C028A019B01082319232A233B23C901F4
:102B6000B8011F910F910C9419150F931F9341E019
:102B700050E060E070E004C0440F551F661F771FEF
:102B80008A95D2F78091790290917A02A0917B0286
:102B9000B0917C028A019B01082B192B2A2B3B2B1D
:102BA000C901B8011F910F910C9419156093E602A9
:102BB0007093E7028093E8029093E9020C940C145E
:102BC0008091410290911002891719F08F5F8770F0
:102BD000FBCF089580910F0282958F7009F054C049
:102BE00080910C02882309F44FC080914102A0918A
:102BF000100260910A0270910B0240910D025091F7
:102C00000E02B6E08A1709F43FC090E04115510565
:102C1000C1F17F3F11F46F3FA1F1B89FF001B99F5F
:102C2000F00D1124EF5EFD4F218172132AC0208127
:102C3000621327C02281211124C0238134812417EB
:102C4000350710F421503109241B350B283C310580
:102C5000C0F420910F022F70206120930F0226E014
:102C6000289FF001299FF00D1124EA5EFD4F80811D
:102C70008F70806180838AE092E00E948E020C94C3
:102C8000E01501968770BECF0895BF92CF92DF9274
:102C9000EF92FF920F931F93CF93DF93CDB7DEB7E1
:102CA00061970FB6F894DEBF0FBECDBF7C0185E003
:102CB000F701DE011D9601900D928A95E1F7D7018B
:102CC0003C9111962C91119712960C911297139694
:102CD000CD90DC90149750910A0260910B02809184
:102CE0000D0290910E02009709F434C16F3F19F460
:102CF0005F3F09F42FC1B0900C02BB2009F4EDC076
:102D000040910F02C816D90628F0F601E81BF90B0E
:102D1000CF0104C0809590958C0D9D1D11E0883CDD
:102D2000910548F010E0407F09F0A1C08AE092E0F0
:102D30000E948E0207C1842F807F09F044C0621375
:102D400012C0531310C001110EC04F704061409368
:102D50000F028AE092E00E948E0280910F02D7015A
:102D600015968C932EC0CD2819F12F3F11F43F3FBB
:102D7000F9F0102F01111CC0809141024091100206
:102D800056E0841709F45AC090E0589FF001599F0B
:102D9000F00D1124EF5EFD4F6181261306C06081A6
:102DA000361303C06281611103C001968770E9CFB9
:102DB000102F002309F407C180910F0281608093D6
:102DC0000F0210E000C162130DC053130BC00111BC
:102DD00009C080910F02D70115968C93C7010E94FC
:102DE0008E0296C03D872E878D859E850E94951404
:102DF0008823C9F10023B9F120910F02822F829517
:102E00008F7090E0029774F080910A0290910B020B
:102E100098878F831986DB86CA862C87CE01079612
:102E20000E948E0286E0F701AAE0B2E001900D92C6
:102E30008A95E1F70E94EA1511E0C5C03D872E870B
:102E40008D859E850E948A14292F22952F7030E04F
:102E5000223031050CF0ABC09F7009F0A5C0805E38
:102E6000883008F4B0C0C7010E948E02E5CF62131B
:102E700014C0531312C0011110C080910F02F7014A
:102E80008583C7010E948E0286E0EAE0F2E0DF015E
:102E90001D928A95E9F71B2D96C03D872E878D855B
:102EA0009E850E9495148823F1F20023E1F220917F
:102EB0000F02822F82958F7090E002970CF4B2CFB0
:102EC00080910A0290910B029A8389831B82DD8292
:102ED000CC822E83CE010196A3CFC816D90638F036
:102EE000C81AD90AB8ECCB16D10450F007C08095A7
:102EF00090958C0D9D1D883C910510F010E022C02E
:102F0000102F002309F4AFCF62130BC0531309C075
:102F100086E0F701AAE0B2E001900D928A95E1F710
:102F200052C03D872E878D859E850E949514811104
:102F300079CF80910F02816080930F02C7010E94B8
:102F40008E0241C0EAE0F2E086E0DF011D928A9540
:102F5000E9F739C0002309F486CF3D872E878D8598
:102F60009E850E949514182F882309F47CCF86E053
:102F7000F701AAE0B2E001900D928A95E1F7809105
:102F80000A0290910B020E948A1492959F709630CB
:102F900041F48091090291E089278093090290937E
:102FA00008020E94EA150FC0811159CF0CC02430CD
:102FB00031050CF058CF9F7009F451CFF70195817E
:102FC000907F09F04CCF812F61960FB6F894DEBF49
:102FD0000FBECDBFDF91CF911F910F91FF90EF906A
:102FE000DF90CF90BF90089580910601882331F043
:102FF0008091910287FF02C08EE101C086E0E0EC83
:10300000F2E0DF011D928A95E9F70C940C148823F5
:1030100041F080959091D90189238093D9010C9436
:10302000B41E0895882339F09091D901892B80939B
:10303000D9010C94B41E0895CF93C82F0E94861F07
:103040008C2FCF910C941F1F2091E4003091E5004C
:1030500095E64091EC00842F817040FF22C0809162
:10306000E80080FD1CC08091FE01882391F085302E
:1030700091F08091EB0085FD10C04091E4005091EB
:10308000E5004217530729F39A01915011F784E0A4
:10309000089582E0089583E0089581E0089580E036
:1030A00008954091E80042FFDECF0895809100022C
:1030B00087FF11C08091E80082FD05C08091FE016C
:1030C0008111F8CF11C08091E8008B770BC08091FF
:1030D000FE01882349F08091E80080FFF8CF8091BD
:1030E000E8008E778093E8000895982F973058F580
:1030F0009093E900981739F07091EC002091ED0061
:103100005091F00003C0242F762F50E021FF19C00A
:103110003091EB003E7F3093EB003091ED003D7F2E
:103120003093ED003091EB0031603093EB00709301
:10313000EC002093ED005093F0002091EE0027FF6B
:1031400007C09F5FD3CF8F708093E90081E008951F
:1031500080E0089520910602309107022617370774
:1031600048F06115710539F42091E8002E7720931D
:10317000E80001C0B90140E061157105A9F1209195
:10318000FE01222309F443C0253009F442C02091F6
:10319000E80023FD40C02091E80022FD32C02091CC
:1031A000E80020FFE9CF4091F3002091F20030E0E9
:1031B000342BFC01CF016115710559F02830310520
:1031C00040F481918093F100615071092F5F3F4F6E
:1031D000F1CF41E02830310509F040E02091E800CE
:1031E0002E772093E800C8CF4111C9CF0AC0809143
:1031F000FE01882361F0853061F08091E80083FD55
:103200000AC08091E80082FFF2CF80E0089582E05A
:10321000089583E0089581E008958091BD028111B1
:1032200007C08091FE01843011F081E0089582E0B2
:103230000895CF93DF93CDB7DEB72A970FB6F894F2
:10324000DEBF0FBECDBF84B7877F84BF0FB6F894B3
:10325000A895809160008861809360001092600062
:103260000FBE80E8809361001092610085B780688E
:1032700085BF85B7806885BF0E94B1120E94D012B9
:103280008091E20084608093E20078948091FE0156
:103290008823A1F01091E9001F709091EC00892F14
:1032A000817090FD80E8182B1092E9008091E80071
:1032B00083FD0E94980F1F701093E90082E084BD87
:1032C00093E095BD9AEF97BD80936E000E94430DE9
:1032D00090E090930801809307010E94060E0E94DF
:1032E000150EA3E8B2E0E6E9F2E01EE0F12EFE0ED4
:1032F00011921D92FE12FCCF84E590E00E941021F5
:10330000AC0190937E0280937D0220E030E08BEF51
:10331000FA01E20FF31F96E081939150E9F72A5FDB
:103320003F4F24353105A1F780E090E00E94A820AE
:103330008D3E9E4F11F00E94571E8CE090E00E943F
:10334000A02090E0A0E0B0E080937F029093800204
:10335000A0938102B093820289EA8093800089E081
:103360008093810024982C983F988AB18F7C8AB9E9
:103370006E98479A8BB180638BB9769A0E94AE0D96
:1033800080E090E00E94A8208D3E9E4F11F00E94A8
:10339000571E82E090E00E94A0208093AE0284E05D
:1033A00090E00E94A02090E090939202809391027E
:1033B00083E090E00E94A020682F70E080E090E021
:1033C0000E94D61589E091E0909394028093930235
:1033D000EE24EA94CC24C394D12C50E1552E62E122
:1033E000662E78E1A72EB12CE0E47E2E8091FE01BE
:1033F000853009F043C08091FE01843009F11092BC
:1034000095020FB6F894A895A09260000FBE709236
:10341000600083B7817F846083BF83B7816083BF8F
:103420007894889583B78E7F83BF0FB6F894A8955C
:1034300080916000886180936000109260000FBEF0
:103440008091FD01882391F20E94430D90E09093BA
:103450000801809307010E94060E0E94150EE6E9FE
:10346000F2E01192FE12FDCF0E941C0EE6E9F2E09E
:1034700081918111EEC0FE12FBCFB8CF0E941C0ECD
:10348000EFEAF2E0A6E9B2E000E010E0702F6D9103
:1034900021912627B1F180E090E030E0982EA9013B
:1034A000082E02C0559547950A94E2F740FF25C0C3
:1034B00089837A83C60102C0880F991F9A94E2F724
:1034C0004C01862F90E08821992121E0892B09F475
:1034D00020E02B830E94A91D8160782F9D838C831F
:1034E00049815A816B818D810E944509F801E1551E
:1034F000FD4F80818826808219C001968630910513
:1035000069F60F5F1F4F0E30110509F0BFCFEE8235
:10351000EF8218860E94A91D8160782F9A8789877B
:103520004E815F8168858A850E9445098091AB0242
:103530009091AC020E947F1D9C019091AA02992358
:1035400021F02431310508F478C08091A602109151
:10355000A70281110BC0111190C02091A802211166
:103560008CC02091A902211188C067C09F3F19F02B
:103570009F5F9093AA02181624F40E94CE1C809399
:10358000A6028091A60287FF05C00E94CE1C8195ED
:103590008093A602111624F40E94CE1C8093A702E9
:1035A0008091A70287FF05C00E94CE1C8195809361
:1035B000A7023091A6023323E1F02091A702222333
:1035C000C1F045EB3403C0011124892F990F990BE9
:1035D000009709F481E08093A60235EB2303C00134
:1035E0001124892F990F990B009709F481E080939A
:1035F000A7028091A802181624F40E94AC1C8093A4
:10360000A8028091A80287FF05C00E94AC1C81958A
:103610008093A8028091A902181624F40E94AC1C81
:103620008093A9028091A90287FF05C00E94AC1C6B
:1036300081958093A9020E94B51D1091AD020E9450
:10364000750A181709F4D2CE0E94750A8093AD024C
:10365000CDCE59BC69BC09B400FEFDCF8091D80025
:103660008F7D8093D8008091E00082608093E0009D
:103670008091E00081FDFCCFB9CE9F3F09F078CF6B
:1036800080CF8091DB010895CF93DF9300D01F920C
:10369000CDB7DEB72091FE01243031F523E0298338
:1036A000805891099B838A8382E08093E9008FEFA1
:1036B0009091E800815095FD06C095ED9A95F1F73F
:1036C00000008111F5CF8091E80085FF0DC040E03A
:1036D00050E063E070E0CE0101960E94610F80919E
:1036E000E8008E778093E8000F900F900F90DF91A5
:1036F000CF9108950F931F93CF93DF9300D01F9224
:10370000CDB7DEB78C010E940D19823011F08430E4
:1037100021F584E089831B830A8382E08093E9009A
:103720008FEF9091E800815095FD06C095ED9A9538
:10373000F1F700008111F5CF8091E80085FF0DC001
:1037400040E050E063E070E0CE0101960E94610F1E
:103750008091E8008E778093E8000F900F900F9093
:10376000DF91CF911F910F910895CF93DF93EC01DB
:103770000E940D19823011F08430F9F482E08093B8
:10378000E9009FEF8091E800915085FD06C085ED2E
:103790008A95F1F700009111F5CF8091E80085FF3F
:1037A0000CC040E050E066E070E0CE010E94610F86
:1037B0008091E8008E778093E800DF91CF910895A3
:1037C000CF93DF93EC010E940D19823011F0843009
:1037D000D9F580910601882339F08091910287FF05
:1037E00003C060E282E002C068E081E08093E9000B
:1037F0008FEF9091E800815095FD06C095ED9A9568
:10380000F1F700008111F5CF8091E80085FF1CC021
:1038100080910601811105C040E050E068E070E051
:1038200003C070E040E050E0CE010E94610F809143
:10383000E8008E778093E80080E2FE01ACEDB1E015
:1038400001900D928A95E1F7DF91CF910895803F25
:1038500039F48091A70287FF6CC01092A70269C05B
:10386000813F29F48091A7021816BCF362C09091A1
:10387000A602823F29F497FF5CC01092A60259C0AD
:10388000833F19F41916CCF354C0893F41F4809159
:10389000A80218160CF04DC01092A8024AC08A3F28
:1038A00029F48091A80287FF44C0F6CF8B3F39F4FA
:1038B0008091A90287FF3DC01092A9023AC08C3FB7
:1038C00029F48091A9021816BCF333C0843F21F477
:1038D0008091A5028E7F17C0853F21F48091A502BB
:1038E0008D7F11C0863F21F48091A5028B7F0BC094
:1038F000873F21F48091A502877F05C0883F31F47E
:103900008091A5028F7E8093A50213C08D3F21F484
:103910008091EE028E7F0BC08E3F21F48091EE02EB
:103920008D7F05C08F3F29F48091EE028B7F8093BD
:10393000EE028091A60281110EC08091A702811132
:103940000AC08091A802811106C08091A90281114C
:1039500002C01092AA0208958091EE0280FD16C066
:1039600081FD16C082FD18C08091AA02882391F0C3
:10397000883290F428E0829FC001112468E270E050
:103980000E94F620862F672B29F007C082E0089559
:1039900084E0089581E0089588E008958091EE0222
:1039A00080FD17C081FD17C082FD19C08091AA0259
:1039B000882399F08C3398F423E2829FC00111246C
:1039C0006CE370E00E94F620862F672B49F481E0BB
:1039D000089588E0089581E1089585E0089583E2DF
:1039E0000895803F21F40E94CE1C819504C0813F40
:1039F00029F40E94CE1C8093A7020895823F21F4EF
:103A00000E94CE1C819504C0833F29F40E94CE1CE5
:103A10008093A6020895893F19F40E94AC1C05C04A
:103A20008A3F31F40E94AC1C81958093A8020895CE
:103A30008B3F21F40E94AC1C819504C08C3F29F47B
:103A40000E94AC1C8093A9020895843F21F48091C8
:103A5000A502816017C0853F21F48091A502826094
:103A600011C0863F21F48091A50284600BC0873F7E
:103A700021F48091A502886005C0883F31F48091CF
:103A8000A50280618093A50208958D3F21F4809165
:103A9000EE0281600BC08E3F21F48091EE028260C5
:103AA00005C08F3F29F48091EE0284608093EE027E
:103AB000089578941F920F920FB60F9211248F934E
:103AC0009F93AF93BF938091EA029091EB02A091F4
:103AD000EC02B091ED020196A11DB11D8093EA02A6
:103AE0009093EB02A093EC02B093ED02BF91AF91E3
:103AF0009F918F910F900FBE0F901F901895CF92AE
:103B0000DF92EF92FF920F931F932FB7F89440919B
:103B1000EA025091EB026091EC027091ED022FBF2E
:103B20006A017B01EE24FF248C0120E030E0C01606
:103B3000D106E206F30610F4415051099A01281B00
:103B4000390BC9011F910F91FF90EF90DF90CF903B
:103B500008952FB7F8948091EA029091EB02A0911A
:103B6000EC02B091ED022FBF0895E0919302F09125
:103B70009402309749F082E08093A4020480F5819A
:103B8000E02D84EA92E009950E94A91D9093AC0271
:103B90008093AB0208951F920F920FB60F921124DB
:103BA0008F939F93AF93BF9380919502811113C020
:103BB0008091EA029091EB02A091EC02B091ED02AB
:103BC0004196A11DB11D8093EA029093EB02A09350
:103BD000EC02B093ED02BF91AF919F918F910F9046
:103BE0000FBE0F901F90189520910601222321F0FF
:103BF0002091910227FD04C0FC013296089619C05D
:103C0000262F2695269526952E31C0F4FC01E20F2D
:103C1000F11D677081E090E001C0880F6A95EAF7B6
:103C2000809592818923828308953196E817F90758
:103C300029F020812613F9CF1082F7CF0895209123
:103C40000601222321F02091910227FD05C0FC01ED
:103C500032962FEF30E019C0262F2695269526950F
:103C60002E3120F5FC01E20FF11D677081E090E03C
:103C700001C0880F6A95EAF79281892B82830895A3
:103C80002F3F39F03F5F363041F041914613F8CF76
:103C90000DC04111F7CF232FF5CF2F3F39F0FC0195
:103CA000E20FF11D27FDFA956283089508956DEEE8
:103CB0007EEF80E090E00E94CC2060E082E090E027
:103CC0000E94AE2060E083E090E00E94AE2010925F
:103CD000E6021092E7021092E8021092E90260E018
:103CE00084E090E00E94AE2060E085E090E00E94D9
:103CF000AE2060E086E090E00E94AE206FEF87E0AB
:103D000090E00E94AE2040E050E0BA0188E090E0F0
:103D10000E94C02060E08DE090E00E94AE2040E074
:103D200050E0BA0188E190E00E94C02060E087E1A5
:103D300090E00E94AE2040E050E0BA018FE090E0B9
:103D40000E94C02040E050E0BA0183E190E00C9472
:103D5000C0208091E502882331F01092E502109294
:103D6000E4021092E30208959091E2028091D90159
:103D7000892B9091E102892B8093BE028091E5020C
:103D8000882321F10E94271481110E94A91E90917D
:103D9000E5028091BE02892B8093BE0280910601CC
:103DA000882331F08091910287FF02C08EE101C02B
:103DB00086E0E0ECF2E090E0815028F021912223AF
:103DC000D9F39F5FF9CF91110E94A91EE091930250
:103DD000F09194023097A9F080910601882359F060
:103DE0008091910287FF07C08091BE028093BF023D
:103DF00085E08093BE020280F381E02D8EEB92E09D
:103E0000099408952091E002809582238093E00236
:103E1000982F977099F430E0482F082E000C550B1E
:103E20002417350759F08595859585950E9490153D
:103E30001092E0021092DF021092DE0208958823B1
:103E400009F463C0823869F40E94750A81FF5DC07D
:103E500069E38EEB92E00E941F1E0E94B41E69E38C
:103E60000EC0833891F40E94750A80FF4EC063E54E
:103E70008EEB92E00E941F1E0E94B41E63E58EEB43
:103E800092E00E94F41D0C94B41E843869F40E94E0
:103E9000750A82FF3AC067E48EEB92E00E941F1E13
:103EA0000E94B41E67E4EBCF9CEF980F913A10F498
:103EB000682FE5CF90E2980F983088F4877021E062
:103EC00030E0A90102C0440F551F8A95E2F7CA01EC
:103ED00080959091D90189238093D901D4CF9BE516
:103EE000980F933020F480E090E00C945F0A98E5FE
:103EF000980F973120F480E090E00C94490A803FBD
:103F000020F00E94271C0C94B51D0895882309F405
:103F100016C18238B1F40E94750A81FD10C169E3AF
:103F20008EEB92E00E941F1E0E94B41E2FEF41EE06
:103F300054E0215040405040E1F700C0000069E3E8
:103F400017C08338D9F40E94750A80FDF8C063E574
:103F50008EEB92E00E941F1E0E94B41E8FEF91EE26
:103F600024E0815090402040E1F700C0000063E56C
:103F70008EEB92E00E94F41D0C94B41E8438B1F4D0
:103F80000E94750A82FDDBC067E48EEB92E00E941E
:103F90001F1E0E94B41E4FEF51EE84E0415050406E
:103FA0008040E1F700C0000067E4E2CF9CEF980F8B
:103FB000913A30F4682F8EEB92E00E941F1EDCCF06
:103FC00090E2980F983080F4877021E030E0A901EA
:103FD00002C0440F551F8A95E2F7CA019091D9019A
:103FE000892B8093D901C8CF9BE5980F933070F44B
:103FF000853A29F0863A31F083E890E005C081E8FF
:1040000090E002C082E890E00C945F0A98E5980F77
:10401000973108F08EC0883A09F445C0893A09F40E
:1040200045C08A3A09F445C08B3A09F445C08C3A38
:1040300009F445C08B3B09F445C08C3B09F445C0ED
:104040008D3A09F445C0803B09F445C08E3A09F425
:1040500045C08F3A09F445C0813B09F445C0823B15
:1040600009F445C0833B09F445C0843B09F445C0CD
:10407000853B09F445C0863B09F445C0873B09F4FC
:1040800045C0883B09F445C0893B09F445C08D3BD8
:1040900009F445C08E3B09F445C08A3B09F445C08C
:1040A00080E090E044C082EE90E041C089EE90E074
:1040B0003EC08AEE90E03BC085EB90E038C086EBD6
:1040C00090E035C083EB90E032C084EB90E02FC0ED
:1040D00087EB90E02CC08CEC90E029C08DEC90E058
:1040E00026C083E891E023C08AE891E020C082E9FD
:1040F00091E01DC084E991E01AC081E292E017C00E
:1041000083E292E014C084E292E011C085E292E082
:104110000EC086E292E00BC087E292E008C08FE614
:1041200090E005C080E790E002C08AE292E00C9443
:10413000490A803F20F00E94F11C0C94B51D08959F
:10414000F999FECF92BD81BDF89A992780B508955F
:10415000A8E1B0E042E050E00C94D420262FF99979
:10416000FECF92BD81BDF89A019700B4021639F0D6
:104170001FBA20BD0FB6F894FA9AF99A0FBE0895A7
:104180000396272F0E94AF200E94AE20252F0E9469
:10419000AF20242F0C94AF200196272F0E94AF2030
:1041A0000C94AE20DC01CB01FC01F999FECF06C0D6
:1041B000F2BDE1BDF89A319600B40D9241505040E5
:1041C000B8F70895AA1BBB1B51E107C0AA1FBB1F6C
:1041D000A617B70710F0A61BB70B881F991F5A9593
:1041E000A9F780959095BC01CD01089597FB072E06
:1041F00016F4009407D077FD09D00E94E22007FC56
:1042000005D03EF4909581959F4F089570956195E6
:104210007F4F0895EE0FFF1F0590F491E02D099454
:10422000CF93DF938230910510F482E090E0E0912B
:10423000F102F091F20220E030E0C0E0D0E03097EF
:1042400011F14081518148175907C0F048175907AB
:1042500061F482819381209719F09B838A832BC01C
:104260009093F2028093F10226C02115310519F0D6
:104270004217530718F49A01BE01DF01EF010280D3
:10428000F381E02DDCCF2115310509F1281B390B15
:104290002430310590F412968D919C9113976115FD
:1042A000710521F0FB019383828304C09093F20295
:1042B0008093F102FD01329644C0FD01E20FF31F2D
:1042C00081939193225031092D933C933AC02091D0
:1042D000EF023091F002232B41F420910201309142
:1042E00003013093F0022093EF02209100013091FE
:1042F00001012115310541F42DB73EB7409104016C
:1043000050910501241B350BE091EF02F091F00272
:10431000E217F307A0F42E1B3F0B2817390778F09C
:10432000AC014E5F5F4F2417350748F04E0F5F1FFB
:104330005093F0024093EF028193919302C0E0E02A
:10434000F0E0CF01DF91CF9108950F931F93CF93AA
:10435000DF93009709F48CC0FC013297138212821C
:104360000091F1021091F2020115110581F42081F2
:104370003181820F931F2091EF023091F0022817B4
:10438000390779F5F093F002E093EF0271C0D8019C
:1043900040E050E0AE17BF0750F412962D913C91CB
:1043A0001397AD012115310509F1D901F3CF9D0115
:1043B000DA013383228360817181860F971F821710
:1043C000930769F4EC0128813981260F371F2E5F8E
:1043D0003F4F318320838A819B8193838283452B46
:1043E00029F4F093F202E093F10242C01396FC9399
:1043F000EE931297ED01499159919E01240F351FBB
:10440000E217F30771F480819181840F951F029662
:1044100011969C938E938281938113969C938E9395
:104420001297E0E0F0E0D80112968D919C911397DD
:10443000009719F0F8018C01F6CF8D919C919801AD
:104440002E5F3F4F820F931F2091EF023091F002B9
:104450002817390769F4309729F41092F202109264
:10446000F10202C0138212821093F0020093EF0255
:0E447000DF91CF911F910F910895F894FFCF27
:10447E000000F3022000012000411BE01BB51B448D
:10448E001B7A1B000D010D020D030D040D050D0011
:10449E000C010C020C030C040C050C000B010B029E
:1044AE000B030B040B050B000A010A020A030A0494
:1044BE000A050A0009010902090309040905090090
:1044CE00080108020803080408050800070107028E
:1044DE000703070407050700060106020603060484
:1044EE000605060005010502050305040505050080
:1044FE00040104020403040404050400030103027E
:10450E000303030403050300020102020203020473
:10451E00020502000101010201030104010501006F
:0C452E0000010002000300040005000072
:00000001FF
