:100000000C946F020C948C020C948C020C948C0255
:100010000C948C020C948C020C948C020C948C0228
:100020000C948C020C948C020C94E6120C94221208
:100030000C94881D0C948C020C948C020C948C02F1
:100040000C948C020C948C020C948C020C948C02F8
:100050000C948C020C94161D0C948C020C948C0243
:100060000C948C020C948C020C948C020C948C02D8
:100070000C948C020C948C020C948C020C948C02C8
:100080000C948C020C948C020C948C020C948C02B8
:100090000C948C020C948C020C948C020C948C02A8
:1000A0000C948C020C948C020C948C028A048C04A8
:1000B00097048E04900492049404960499049B047B
:1000C0009D04A8049F04A104A304A504A704AA04F2
:1000D0004C054C058A058A05CC05EC05C6071F08AA
:1000E0002E061F081B071B072807280728072807B5
:1000F0002807280728072807280728072807280788
:1001000028072807280728073907610768076F07A6
:100110008707E908EC08EF08F208F508F808FB087B
:1001200033105A10FA115A10FA11A210C510FA1110
:10013000C311D611381438144B144B1441144B14FA
:100140004B144B143814381446144B144B144614E7
:1001500006150B15151509150E1513151115350076
:100160002B002900D75CE00000001E0014000400F2
:100170001D00E30001001F001A0016001B00010013
:1001800001512000080007000600E2002C002100B9
:1001900015000900190001000100220017000A00E3
:1001A0000500000001002300010000002F000000F6
:1001B00001002400010000003000000001002500C3
:1001C0001C000B00110000000100260018000D00AB
:1001D00010002C00010027000C000E00360001006A
:1001E00028002D0012000F003700010002512E00E0
:1001F000130033003800010001002A0031003400F0
:10020000D85CE400000029000100010001000100A9
:1002100000003A001E0220022202010001003B0001
:100220001F0221022302010001003C002F022602CE
:100230002F00010001003D003002270230000100C4
:1002400001003E00310235003502000001003F0090
:10025000010000000100000001004000010000005A
:100260000100000001003F000100500024020000D6
:1002700001004000240051001E0001000100430065
:10028000250052001F0037000100440026004F00E7
:10029000200027000100450025022E0231002E001B
:1002A00001004C00450001000100010000000100B8
:1002B0000100010001000100000001000100010037
:1002C00001000100010001000100F2000100010035
:1002D00001000100F000F1000100F4000100010044
:1002E0000100F3000100F500010001000100010020
:1002F00001000000010001000100000001000000F9
:1003000001000100010000000100000001000100E7
:1003100001000100400F0000010001003B0F3C0FF5
:100320003D0F01000100010001003A0F0100010032
:10033000010001003E0F01003F0F0100010001001C
:1003400001000100010001000100010001000100A5
:1003500001000100000005010902A1018502090157
:10036000A10005091901290515002501950575014B
:10037000810295017503810105010930093115815B
:10038000257F95027508810609381581257F95011D
:1003900075088106050C0A38021581257F950175BF
:1003A000088106C0C005010980A10185031601006E
:1003B0002603001A81002A8300751095018100C070
:1003C000050C0901A1018504160100269C021A01F1
:1003D000002A9C02751095018100C005010906A143
:1003E000018505050719E029E71500250195087520
:1003F00001810205081901290595057501910295EC
:1004000001750391010507190029EF1500250195D4
:10041000F075018102C005010906A101050719E077
:1004200029E71500250195087501810295017508D8
:1004300081010508190129059505750191029501AC
:10044000750391010507190029FF150026FF009586
:100450000675088100C009023B00020100A0FA09EC
:1004600004000001030101000921110100012240E3
:10047000000705810308000A0904010001030000C8
:100480000009211101000122C0000705820320009C
:100490000A1201100100000008EDFE07130100011F
:1004A00002030104033000000016034500720067D8
:1004B000006F0044006F007800200045005A0000E3
:1004C0000016034500720067006F0044006F00785B
:1004D00000200045005A0000000403090400112414
:1004E0001FBECFEFDAE0DEBFCDBF11E0A0E0B1E08C
:1004F000E4E6F5E402C005900D92AC3BB107D9F7F4
:1005000022E0ACEBB1E001C01D92A43FB207E1F7DD
:100510000E94D9180C94B0220C9400008F929F92E4
:10052000AF92BF92CF92DF92EF92FF920F931F9301
:10053000CF93DF93CDB7DEB728970FB6F894DEBF21
:100540000FBECDBFFC01F080118183819481892B86
:1005500009F4ACC51F3F21F40FEFF01609F4A6C54E
:100560006F0185E0DE01119601900D928A95E1F709
:10057000F601228189819A81222349F00E94DC13AD
:10058000082F682F89819A810E947C1403C00E94E1
:100590004F14082F26E0129FF001112434E5039F29
:1005A000E00DF11D1124EF0DF11DEE0FFF1FE25ABA
:1005B000FE4F05911491F6018281063FFCE51F076D
:1005C000A1F5882309F472C51CC01092BD01F60183
:1005D00092810531FCE51F0708F40CC10C3DECE5E8
:1005E0001E0709F465C108F413C10D3D3CE513076E
:1005F00009F464C10E3D1C4509F005C2992309F4B4
:1006000055C528960FB6F894DEBF0FBECDBFDF915B
:10061000CF911F910F91FF90EF90DF90CF90BF90FF
:10062000AF909F908F900C94141E882319F1033E75
:100630002CE51207C1F050F4013E8CE5180781F05B
:10064000023E9CE51907B1F481E010C0043EECE5E0
:100650001E0759F0053EFCE51F0761F484E006C063
:100660001092800205C082E001C083E08093800286
:100670000E94860917FF73C0F6018281882309F45E
:100680006EC08091DA018093BC011092DA018091F2
:100690008002813071F048F08230D1F08430F1F482
:1006A00086EE0E94AF1788E117C082EE0E94431FBA
:1006B00015C08CE998E00E940B0F88E10E94431F4F
:1006C00088E10E94DC1E8CE898E00E940B0F06C0B7
:1006D00082EE0E94431F87E50E94AF178FE39CE9DB
:1006E0000197F1F700C000007801E894F7F85CE0AA
:1006F000A52EB12CC7010A2C02C0969587950A94A5
:10070000E2F7282F2F7041F0822F90E02A3010F46A
:100710004D9604C0069702C087E290E00E94AF1792
:1007200094E0A91AB108ECEFAE16EFEFBE0611F790
:1007300080918002813039F040F0823031F0843095
:1007400051F488E206C08CE204C082EE0E94DC1EF6
:1007500002C00E94AF178091BC018093DA01003F74
:10076000FCE51F07C1F188F4083D3CE51307D9F00B
:10077000093D8CE51807D9F1073D9CE5190709F0FB
:1007800024CF26E241EE61EE11C0023FECE51E07E8
:1007900051F128F1033F2CE5120709F016CF27E2AB
:1007A00046EE66EE03C027E245EE65EEC6012896EA
:1007B0000FB6F894DEBF0FBECDBFDF91CF911F9172
:1007C0000F91FF90EF90DF90CF90BF90AF909F90F0
:1007D0008F900C94D20D26E240EE60EEE7CF27E238
:1007E00044EE64EEE3CF26E242EE62EEDFCF28E293
:1007F00041E0DBCF02302CE5120708F066C001159E
:100800003CE5130751F001301C4509F448C0FBC01A
:1008100006311C4509F4C3C0F6C0992309F446C447
:100820001092DA010E9487179FEFE4E3FCE09150F9
:10083000E040F040E1F700C00000F89481E08093D0
:10084000E00080E28093D8001092C9008FE19EE41E
:100850000197F1F700C000001DBA109268001CBC9F
:1008600010BE1FBA10927A0010926E0010926F00A4
:1008700010927100109272001092C9001092BC0088
:1008800014B817B81AB81DB810BA1092BC0015B831
:1008900018B81BB81EB811BA0C94003F07C49923AE
:1008A00009F404C48091AF0281608093AF02FEC35B
:1008B000992309F4FBC31092BE02F8C3992309F4EB
:1008C000F5C382E08093BE02F1C3992309F49BC073
:1008D00080E090E00E941B218D3E9E4F11F00E940F
:1008E000141E84E090E00E94132190E09093930204
:1008F00080939202F801E350FC45E231F10530F4B7
:10090000EA5AFF4F809192020C947D2180919202CD
:10091000816027C0826025C0846023C0806121C0BF
:1009200080621FC080641DC080681BC084608860B6
:1009300018C08E7F16C08D7F14C08B7F12C08F7E33
:1009400010C08F7D0EC08F7B0CC08F770AC08B7F4D
:10095000877F07C087FB222720F991E0922790FB31
:1009600087F9809392026091920284E090E00E9465
:1009700021211092DA0128960FB6F894DEBF0FBE3F
:10098000CDBFDF91CF911F910F91FF90EF90DF903E
:10099000CF90BF90AF909F908F900C9487178091CD
:1009A000DA01992389F0982F9A7A81E009F480E09E
:1009B0008093BE01811102C069E201C065E38FEB43
:1009C00092E00E94DC1D0BC08091BE01811102C02B
:1009D00069E201C065E38FEB92E00E94B11D2896A9
:1009E0000FB6F894DEBF0FBECDBFDF91CF911F9140
:1009F0000F91FF90EF90DF90CF90BF90AF909F90BE
:100A00008F900C94711EF60100811181992349F099
:100A1000C8010E94DC13F82E682FC8010E947C14C4
:100A200004C0C8010E944F14F82EB8018F2D0E94F7
:100A30008C09182F382FF601258122952F700281FD
:100A400001111092E3028091E1028770A9F0002366
:100A500099F080E2810F883078F082E02F83388728
:100A60009E830E94BF1E8091E1028770EE24E39472
:100A70002F8138859E818111E12CA92EA2944FE00F
:100A8000A422B12CFCE0AF16B10408F0D8C2F501E5
:100A9000E859FF4F0C947D21892F807F9F70F92E9C
:100AA000882319F0F29480EFF8220023B9F0FF2098
:100AB00009F456C280E2810F883010F0311106C06F
:100AC0009091DA01F92AF092DA0105C09091E302DF
:100AD000F92AF092E3020E94711E42C2812F3887E8
:100AE0000E94DC1E3885FF2009F4A9C2105EF09434
:100AF000183010F0311106C09091DA01F922F0920D
:100B0000DA0105C09091E302F922F092E3020E941B
:100B1000711E95C2492F407F892F8F70403211F08E
:100B20008295807F332319F0313019F12BC00023D7
:100B3000B1F09091E602222381F0213071F4182F58
:100B4000192B911709F47BC20E94661D9093E50250
:100B50008093E4021093E60272C2892B81C12223A2
:100B600019F0213009F46BC28E830E94661E8E81BB
:100B70007DC1002321F0223008F061C271C1211132
:100B80005EC274C1002321F0222309F469C1E8C1C7
:100B9000222309F46BC1F6C1292F269526952370CF
:100BA00030E02115310521F02130310559F047C2DF
:100BB000002319F0812F937002C080E090E00E9422
:100BC00064094BC2002319F0812F937002C080E0AA
:100BD00090E00E944E0941C20023F9F0153F51F008
:100BE000163F71F0143FA9F48091BF019091C001AC
:100BF00081600BC08091BF019091C001826005C0EF
:100C00008091BF019091C00184609093C001809356
:100C1000BF01812F0E94AE1C1EC0153F51F0163F30
:100C200071F0143FA9F48091BF019091C0018E7FB3
:100C30000BC08091BF019091C0018D7F05C0809154
:100C4000BF019091C0018B7F9093C0018093BF0141
:100C5000812F0E94E41B0E94721DFFC1892F8370A7
:100C600009F071C00111F7C1812F829586958770B7
:100C7000880F880F412F4F7050E060E070E04A010C
:100C80005B01082E04C0880C991CAA1CBB1C0A948A
:100C9000D2F714FF12C00FE010E020E030E004C0F3
:100CA000000F111F221F331F8A95D2F7B901A80127
:100CB000409550956095709503C040E050E0BA01B2
:100CC000969596959370892F90E082309105E9F082
:100CD0008330910579F10091E7021091E8022091AB
:100CE000E9023091EA02019759F0482959296A2905
:100CF0007B29CB01BA01602371238223932320C077
:100D0000802A912AA22AB32A15C0482959296A297A
:100D10007B298091E7029091E802A091E902B091CD
:100D2000EA028A019B01082719272A273B27C901C4
:100D3000B80106C0CB01BA01682979298A299B2903
:100D40000E94691588C1002319F0892F817001C0A4
:100D50008695882309F47FC1812F829586958770B7
:100D6000880F880F412F4F7050E060E070E04A011B
:100D70005B01082E04C0880C991CAA1CBB1C0A9499
:100D8000D2F714FF12C00FE010E020E030E004C002
:100D9000000F111F221F331F8A95D2F7B901A80136
:100DA000409550956095709503C040E050E0BA01C1
:100DB000969596959370892F90E082309105E9F091
:100DC0008330910579F100917A0210917B02209194
:100DD0007C0230917D02019759F0482959296A29EE
:100DE0007B29CB01BA01602371238223932320C086
:100DF000802A912AA22AB32A15C0482959296A298A
:100E00007B2980917A0290917B02A0917C02B09123
:100E10007D028A019B01082719272A273B27C90140
:100E2000B80106C0CB01BA01682979298A299B2912
:100E30000E94AC1410C1412F50E0FA01E05EF109AC
:100E4000E531F10508F087C0EC58FF4F0C947D2187
:100E50001F70892F8F71002331F00E944815812F58
:100E60000E94A517ECC00E942315812F0E949A179B
:100E7000E6C0002311F12111E2C0292F2F7181E07A
:100E800090E0A0E0B0E0AC01BD0104C0440F551FEC
:100E9000661F771F2A95D2F780917A0290917B0284
:100EA000A0917C02B0917D028A019B01082719273D
:100EB0002A273B27C901B80127C0223008F0BFC04C
:100EC000DCCF002339F0892F8F710E944815B7C0FD
:100ED0000023C9F3892F8F710E942315B0C000230E
:100EE00081F0292F2F7181E090E0A0E0B0E0BC01FB
:100EF000CD0104C0660F771F881F991F2A95D2F76E
:100F000003C060E070E0CB010E94AC1498C00023E5
:100F1000B1F0192F1F71812F0E94481528E0129FF0
:100F2000C001112483608093E102812F0E94481543
:100F30000E94661D9093E0028093DF0280C081E0F2
:100F40002F830E94BF1E2F81223008F478C082E0D8
:100F50000E94BF1E74C0002339F0222309F4B3CFCE
:100F6000812F0E94431F6BC0222309F4B3CF193392
:100F700049F43FEF83EC99E0315080409040E1F735
:100F800000C00000812F0E94DC1E59C0323FB1F02A
:100F900028F4303F49F0313FF9F028C0343FB9F030
:100FA00058F0353F71F022C0002309F456C09091EB
:100FB0000A0281E0892708C081E0082700930A021D
:100FC0004CC001114AC081E080930A0246C0011161
:100FD00044C010920A0241C0002329F08091090206
:100FE000882329F329C0222311F337C080910902F5
:100FF0002223C1F0882341F090910A0281E08927E1
:1010000080930A0210920902812F002319F00E9496
:10101000431F23C00E94DC1E86E0F60111928A95D0
:10102000E9F71BC08823C9F0011117C090910A028B
:1010300081E0892780930A02109209020EC0F8E02D
:10104000AF16B10441F04CF01AE0A11AB10822E049
:10105000A216B10410F40E947A09EE2039F18091B1
:10106000E10280FD23C0F601128285958595859564
:101070000E944815C6010E948E028091E10285956A
:101080008595859528960FB6F894DEBF0FBECDBF27
:10109000DF91CF911F910F91FF90EF90DF90CF9054
:1010A000BF90AF909F908F900C94231528960FB609
:1010B000F894DEBF0FBECDBFDF91CF911F910F918E
:1010C000FF90EF90DF90CF90BF90AF909F908F9068
:1010D00008959091920292FF0DC0282F2871283018
:1010E00019F4877F846006C0282F2471243011F4FE
:1010F0008B7F886093FF0DC0282F2871283119F449
:10110000877E846106C0282F2471243111F48B7EE0
:10111000886194FD877E0895282F277081E090E0F4
:1011200001C0880F2A95EAF780959091E302892300
:101130008093E3020C94711E282F277081E090E0C9
:1011400001C0880F2A95EAF79091E302892B8093DA
:10115000E3020C94711ECF93E82F873080F58091C5
:10116000070190910801892B09F047C0CE2F64E652
:1011700070E080E40E94632090930801809307014F
:10118000892BD1F464E670E082E10E94BA2090934A
:10119000080180930701892B79F481E090E001C078
:1011A000880FCA95EAF764E670E080950E94BA203D
:1011B0009093080180930701CF910C940F2190E048
:1011C000FC013797E730F105C0F4E757FF4F0C9467
:1011D0007D21209A289811C0219A29980EC0229A20
:1011E0002A980BC0239A2B9808C0529A5A9805C087
:1011F000539A5B9802C03E9A4698CF910895CF9338
:10120000873008F03FC08091070190910801892B39
:1012100009F041C064E670E080E40E94632090938E
:10122000080180930701892B11F0C0E027C064E614
:1012300070E083E10E94BA20909308018093070137
:10124000892B99F764E670E081E40E946320909313
:10125000080180930701892B41F784E690E00E9402
:10126000EA2097FF05C09093080180930701DDCF26
:10127000C82FC09510920801109207010E940F21FB
:101280008C2F0AC09FB18FB1807F86958695937011
:10129000892B809501C080E0CF9108952091C901EC
:1012A0003091CA018217930771F09093CA0180931D
:1012B000C901E0919402F0919502309721F00084E9
:1012C000F185E02D099408952091C7013091C8015E
:1012D0008217930771F09093C8018093C701E09142
:1012E0009402F0919502309721F00680F781E02D6D
:1012F00009940895E0919402F0919502309721F0BD
:101300000190F081E02D099480E0089560918002C1
:101310008CE090E00C942121CF93DF9326E0729F24
:10132000F001112434E5839FE00DF11D1124E60F37
:10133000F11DEE0FFF1FE25AFE4FC591D491CE0171
:10134000C238D10549F1B0F4C133D10509F464C004
:1013500048F4C932D10509F458C0CA32D10509F49C
:1013600062C068C0C533D10509F448C0C933D1058E
:1013700099F060C0C33ED10541F138F4C03ED105BB
:1013800091F0C23ED105B1F055C0C63ED10521F164
:10139000C73ED10561F14EC02091920220FD14C2DA
:1013A00021FD12C213C22091920220FF0FC289E3D5
:1013B00090E00CC22091920222FF08C2809192021A
:1013C00084FDB4C183EE90E001C28091920282FF5D
:1013D000F5CF82EE90E0FAC12091920223FFF6C190
:1013E0008091920284FDA2C187EE90E0EFC18091CE
:1013F000920283FFF5CF86EE90E0E8C12091920241
:1014000025FFE4C189E290E0E1C12091920225FF2D
:10141000DDC185E390E0DAC12091920226FFD6C1BA
:101420008AE290E0D3C12091920226FFCFC181E3EE
:1014300090E0CCC1C11520E5D20708F047C0C11526
:1014400030E4D30708F034C1C83ED10518F5C03EDA
:10145000D10508F0BBC1C83AD10570F4C53AD10531
:1014600008F0B0C0C130D10509F4B0C108F45EC1C4
:10147000249708F45BC1AAC1CF3BD10508F4ADC0E5
:10148000C03CD10508F452C1FE01EE0FFF1FEA5225
:10149000FE4F02C1C11520E2D20760F4C11531E050
:1014A000D30708F093C1C03FD10508F43FC1CE0176
:1014B00090658CC1C11580E3D80708F0F0C0FE012B
:1014C000FF70EE0FFF1FEA5AFC4FE6C0C11595E50D
:1014D000D90708F044C0C11524E5D20708F000C1BF
:1014E000C11532E5D30710F5C11581E5D80708F01D
:1014F000E3C02C2F237081E090E002C0880F991F79
:101500002A95E2F79C689E0174E0369527957A95B6
:10151000E1F72370922BEC2FEF70E695E69530E221
:10152000E39FF00111248E2B9F2B50C18C2F8695A9
:101530008695AE0143705527C115D34508F0C1C04B
:1015400090E2899F9001112481E090E002C0880F11
:10155000991F4A95E2F7822B932B9C6837C1C115DE
:101560002AE5D207A0F4C11539E5D30708F0C6C0B3
:10157000C11586E5D80708F4B8C0C11598E5D907A4
:1015800008F4D4C09C2F8827806F906A1FC1C115B2
:101590002BE5D20708F4CAC0CE01C1153CE5D3073C
:1015A00008F4C1C090568115904208F0BFC08D2F3D
:1015B0008F710E946908FE01FF27F0628F719F0101
:1015C000382BAFC0C53AD10509F4B3C0C63AD1052E
:1015D00009F0B2C082E890E4F9C0C83AD10509F434
:1015E000AEC0C93AD10509F4ADC0CA3AD10509F473
:1015F000ACC0CB3AD10509F4ABC0CC3AD10509F463
:10160000AAC0CB3BD10509F4A9C0CC3BD10509F454
:10161000A8C0CD3AD10509F4A7C0C03BD10509F453
:10162000A6C0CE3AD10509F4A5C0CF3AD10509F438
:10163000A4C0C13BD10509F4A3C0C23BD10509F444
:10164000A2C0C33BD10509F4A1C0C43BD10509F434
:10165000A0C0C53BD10509F49FC0C63BD10509F424
:101660009EC0C73BD10509F49DC0C83BD10509F414
:101670009CC0C93BD10509F49BC0CD3BD10509F401
:101680009AC0CE3BD10509F499C0CA3BD10509F4F3
:1016900098C080E094E49AC08591949197C09E018F
:1016A0003327C901D3FF02C0986C90C0906C8EC0E4
:1016B000CE019F70906A8AC09C2F8827816F906AA4
:1016C00085C090E2899F9001112481E090E002C0E2
:1016D000880F991F4A95E2F7822B932B9A6876C060
:1016E0009C2F8827846F906A71C08C2F0E94690894
:1016F0008F7190E0982F8827906268C08C2F8F7030
:101700000E946908FE0194E0F695E7959A95E1F745
:10171000EF70F0E0FE2FEE27F06A8F70806E9F0171
:10172000282BC90153C09927906650C080E090E0F3
:101730004DC081E890E44AC083E890E447C082EE5F
:1017400094E444C089EE94E441C08AEE94E43EC03F
:1017500085EB94E43BC086EB94E438C083EB94E4DF
:1017600035C084EB94E432C087EB94E42FC08CEC5A
:1017700094E42CC08DEC94E429C083E895E426C061
:101780008AE895E423C082E995E420C084E995E4E1
:101790001DC081E296E41AC083E296E417C084E299
:1017A00096E414C085E296E411C086E296E40EC089
:1017B00087E296E40BC08FE694E408C080E794E4E7
:1017C00005C08AE296E402C080EE90E0DF91CF91FE
:1017D000089580E290E09093080180930701809142
:1017E000C40181110EC00E945D2081E08093C4017C
:1017F0002FEF83ED90E3215080409040E1F700C04F
:10180000000064E670E080E40E9463209093080189
:1018100080930701892B09F04EC064E670E080E0F8
:101820000E94BA209093080180930701892B09F048
:1018300042C064E670E080E00E94BA209093080104
:1018400080930701892BB9F564E670E08FE30E946D
:10185000BA209093080180930701892B61F50E94BB
:101860000F2164E670E080E40E94632090930801F9
:1018700080930701892BF9F464E670E08CE00E9404
:10188000BA209093080180930701892BA1F464E6A4
:1018900070E080E00E94BA209093080180930701D5
:1018A000892B49F464E670E08FE30E94BA2090939C
:1018B0000801809307010E940F218091070108957C
:1018C00056985E9825982D9826982E9827982F98A8
:1018D0008FEF90E0909389008093880090938B0025
:1018E00080938A0090938D0080938C00259A2D9A86
:1018F0002FEF80E792E0215080409040E1F700C058
:101900000000269A2E9A2FEF80E792E02150804027
:101910009040E1F700C00000279A2F9A2FEF80E750
:1019200092E0215080409040E1F700C000002598EF
:101930002D982FEF80E792E0215080409040E1F712
:1019400000C0000026982E982FEF80E792E02150EB
:1019500080409040E1F700C0000027982F985698EB
:101960005E9825982D9826982E9827982F98089558
:1019700084B1807F84B985B1807F85B98AB1837F46
:101980008AB98BB1837F8BB93E984698089580B30E
:101990008C7080BB81B3836F81BB0895DF92EF921F
:1019A000FF920F931F93CF93DF93CDB7DEB7679767
:1019B0000FB6F894DEBF0FBECDBFF42E4B8BD52EE5
:1019C0005C8BE62E6D8B7E8B8F8B0E891F890115AC
:1019D0001105B9F18FEF581302C0481791F1EF2D9F
:1019E000F0E041E050E00F2C01C0440F0A94EAF708
:1019F0008D2D90E0EE2019F020910A0205C0DC0147
:101A0000A553BE4F2C9124232223A1F056E0589FCA
:101A10009001599F300D1124E20FF31FEE0FFF1FAD
:101A2000ED5EFE4FF080D180FC01E553FE4F9081CA
:101A3000492B06C0FC01E553FE4F409580814823A9
:101A40004083FE013D9686E0DF011D928A95E9F70D
:101A50000E94661D2091DF023091E00282179307F9
:101A600088F00E94661D2091DF023091E00282170B
:101A7000930791F08091E10282FD0EC082E00E9406
:101A8000BF1E0AC00E94661D2091DF023091E00255
:101A9000821B930B019771F70E94C21781110E945C
:101AA000661EFD86DE86EF86198B088B86E0FE01BA
:101AB0003D96DE01179601900D928A95E1F7CE01D1
:101AC00007960E94D815811136C086E0FE01379630
:101AD000DE01119601900D928A95E1F77F8168856C
:101AE000EA85FB85309739F16F3F11F47F3F19F19B
:101AF0002091110230E0C901019687709927409129
:101B0000420250E08417950779F179836A83FD8357
:101B1000EC8396E0929FD001939FB00D1124AE5EAE
:101B2000BD4FFE01319601900D929A95E1F7809399
:101B300011020E94731516E08091420290911102E9
:101B4000891711F1189FC00111248E5E9D4F0E94CC
:101B5000D8158823C9F08091420290E001968770E1
:101B6000992780934202E8CF1092DA010E948717EA
:101B70001092110210924202EBE0F2E086E0DF01E7
:101B80001D928A95E9F7D7CF67960FB6F894DEBF16
:101B90000FBECDBFDF91CF911F910F91FF90EF90BE
:101BA000DF9008950F931F93CF93DF93C62FD42F09
:101BB000022FFC0182818823C9F06093BD010E943D
:101BC000661D9093C6018093C50180E28C0F88301A
:101BD00008F050C0C77081E001C0880FCA95EAF7CD
:101BE000DF91CF911F910F910C94A5171091BD011A
:101BF000161330C08091C5019091C6010E943C1D12
:101C0000883C910538F5C0E2CD0F1D17B9F080E290
:101C1000810F883040F4177081E001C0880F1A9559
:101C2000EAF70E949A17C83048F481E09D2F977018
:101C300001C0880F9A95EAF70E94A517802F0E948D
:101C4000AF17C830B8F4D77081E001C0880FDA95BB
:101C5000EAF70AC080E28C0F883060F4C77081E038
:101C600001C0880FCA95EAF7DF91CF911F910F91BC
:101C70000C949A17DF91CF911F910F9108959F9225
:101C8000AF92BF92CF92DF92EF92FF920F931F938A
:101C9000CF93DF938091070190910801892B91F0F8
:101CA0008091C3018F5F8093C30181110BC00E949B
:101CB000E90B90E09093080180930701892B11F4C0
:101CC0000E94600C04E812E02BE8E22E22E0F22EE3
:101CD0006801C0E0912C97E0A92EAC0E8C2F0E94D9
:101CE000AB088A2D0E94AB088C2F0E94FF08F601DA
:101CF0009081981721F08083BB24B39401C0B12C4C
:101D00008A2D0E94FF08F7019081981719F08083AF
:101D100081E001C080E0B82A9B280E94B80CCF5F08
:101D2000FFEFCF1ADF0A8FEFE81AF80AC73099F6EB
:101D30000E94661D6AEF70E00E9455219C01682F89
:101D40008091C2018823E9F11092C201E0917E02E4
:101D5000F0917F02DF011E9690E07BEF8AEFE82E84
:101D6000F12C80818B3FA9F0482F50E0681728F0B4
:101D7000E901C41BD50BAE0106C06701C41AD50A20
:101D8000A601420F531F4F30510514F0708301C05C
:101D900091E03196EA17FB0721F79093C201911069
:101DA00002C0911110C01092C101A0917E02B091A9
:101DB0007F029091C201E7E9F2E080E03EE03E0F51
:101DC00007C09110F0CF8091C1018111ECCF16C0F6
:101DD000E80129918E014081421741F04C914B3F1F
:101DE00021F46C93208391E001C081E0119631963B
:101DF0003E13EECF9093C2018093C101892DDF91F4
:101E0000CF911F910F91FF90EF90DF90CF90BF90F7
:101E1000AF909F900895CF93DF93EC0180EEFE0189
:101E2000099581EEFE01DF91CF910994CF92DF9267
:101E3000FF920F931F93CF93DF931F92CDB7DEB71F
:101E4000F82E8B0199830E94E417998181111CC09F
:101E5000CF2CD92E01151105B1F08091E80085FD38
:101E60000AC08091E8008E778093E8000E94E41712
:101E7000882381F309C0F60181916F018093F100FD
:101E800001501109E7CF80E00F90DF91CF911F91B2
:101E90000F91FF90DF90CF9008951F93CF93DF9322
:101EA000CDB7DEB7AA970FB6F894DEBF0FBECDBF91
:101EB000E1E0F2E088E08E0F9091F10091938E13B3
:101EC000FBCF80910202833009F460C030F481308E
:101ED00071F0823009F49CC0B3C08A3009F488C024
:101EE0008B3009F46BC0893009F0AAC020C0809102
:101EF0000102813A09F0A4C08091E800877F8093B5
:101F0000E8008091050290910602892B21F460E29D
:101F10008DED91E003C060E080E090E070E00E9411
:101F20006A188091E8008B778093E80089C08091DF
:101F30000102813209F084C080910502909106026D
:101F4000029708F07DC08091E800877F8093E800C9
:101F50008091E80082FD05C08091FF018111F8CFDA
:101F60006FC02091F3008091F20090E0922B0297D5
:101F700029F48091F1008B7F813021F48091F10070
:101F80008093DC018091E8008B7756C0809101023C
:101F9000813A09F055C08091050290910602892B83
:101FA00009F04EC08091E800877F8093E80080911F
:101FB000E80080FFFCCF8091060139C080910102CA
:101FC0008132F1F58091050290910602892BC1F5CD
:101FD0008091E800877F8093E8000E941618809126
:101FE0000302809306011092DA010E94871728C02D
:101FF00080910102813221F58091E800877F8093F2
:10200000E8000E941618809104028093DB0118C03A
:1020100080910102813AA1F48091E800877F80934A
:10202000E8008091E80080FFFCCF8091DB01809385
:10203000F1008091E8008E778093E8000E941618E6
:102040008091E80083FFD6C1809101029091020245
:10205000492F50E04A30510508F0CCC1FA01E05751
:10206000FF4F0C947D21803821F0823809F0C2C1E5
:1020700008C08091FD019091FE01992389F0826052
:102080000FC0809105028F70873008F0B3C1809334
:10209000E9008091EB0085FB882780F91092E90028
:1020A0009091E800977F9093E8008093F100109260
:1020B000F10074C1282F2D7F09F09CC1882319F0ED
:1020C000823061F097C180910302813009F092C1A2
:1020D000933009F080E08093FE012EC080910302CE
:1020E00081112AC0809105028F702FEF280F2630B2
:1020F00008F080C18093E9002091EB0020FF1CC014
:10210000933021F48091EB00806214C09091EB0039
:1021100090619093EB0021E030E0A90102C0440FF0
:10212000551F8A95E2F74093EA001092EA008091E9
:10213000EB0088608093EB001092E9008091E8004A
:10214000877F2FC1811156C1109103021F778091A3
:10215000E3008078812B8093E3008091E800877F03
:102160008093E8000E9416188091E80080FFFCCF61
:102170008091E30080688093E300111102C082E047
:1021800001C083E08093FF0135C18058823008F0A0
:1021900031C180910302909104028C3D53E0950778
:1021A00079F583E08A838AE289834FB7F894DE0168
:1021B000139620E03EE051E2E32FF0E05093570009
:1021C000E49120FF03C0E295EF703F5FEF708E2F28
:1021D00090E0EA3010F0C79601C0C0968D939D93B1
:1021E0002F5F243149F74FBF8091E800877F8093AC
:1021F000E8006AE270E0CE0101960E946A18BDC054
:102200004091050250910602292F332723303105D2
:10221000B9F06CF42130310509F4FBC022303105EE
:1022200009F0E8C08BE390E0E6E5F4E054C0213229
:10223000310509F433C02232310509F43CC0DAC05B
:10224000992781309105D1F05CF4892B09F0D2C037
:10225000E9EDF4E0E4918E2F90E0E9EDF4E038C090
:102260008230910599F0039709F0C4C0E3EAF4E0E5
:10227000E4918E2F90E0E3EAF4E02AC0E1ECF4E090
:10228000E4918E2F90E0E1ECF4E022C0E9EAF4E082
:10229000E4918E2F90E0E9EAF4E01AC0411551056F
:1022A00009F4BCC04130510509F0A4C089E090E0B8
:1022B000E1E8F4E010C04115510509F4B4C0413023
:1022C000510509F097C080EC90E0E6E5F3E003C02B
:1022D000009709F48FC02091E800277F2093E80041
:1022E00020910702309108022817390708F4C90124
:1022F00040E0009789F12091FF01222309F43DC0BD
:102300002530D9F12091E80023FD37C02091E80065
:1023100022FD2FC02091E80020FFEBCF4091F30079
:102320002091F20030E0342B009759F0283031052D
:1023300040F444914093F100319601972F5F3F4F55
:10234000F3CF41E02830310509F040E02091E8006A
:102350002E772093E800CDCF4111CDCF0AC08091D8
:10236000FF01882351F0853041F08091E80083FD22
:1023700004C08091E80082FFF2CF8091E8008B7763
:102380008093E80037C08038A9F58091E800877F06
:102390008093E800809100028093F1008091E80032
:1023A0008E778093E8000E94161824C0811122C005
:1023B000109103021230F0F48091E800877F80933F
:1023C000E800109300020E941618111106C08091B7
:1023D000E30087FD02C081E001C084E08093FF013B
:1023E00042E061EC81E00E94351842E261EC82E05B
:1023F0000E9435188091E80083FF1AC08091E800A0
:10240000877F8093E8008091EB0080628093EB00EF
:102410000FC082E190E0E1E9F4E05DCF89E090E077
:10242000E8E6F4E058CF80E490E0E6E1F4E053CF52
:10243000AA960FB6F894DEBF0FBECDBFDF91CF9145
:102440001F9108951F920F920FB60F9211242F9390
:102450003F934F935F936F937F938F939F93AF932C
:10246000BF93CF93DF93EF93FF93C091E900CF70B9
:102470008091EC00D82FD17080FDD0E81092E90057
:102480008091F000877F8093F00078940E944D0F38
:102490001092E9008091F00088608093F000CD2BCD
:1024A000CF70C093E900FF91EF91DF91CF91BF9181
:1024B000AF919F918F917F916F915F914F913F91DC
:1024C0002F910F900FBE0F901F901895E8EDF0E040
:1024D00080818E7F80831092E2001092DA00109249
:1024E000E100A0EEB0E08C9181608C9380818F77C9
:1024F000808319BCA7EDB0E08C918E7F8C93808196
:102500008F7E80831092D9010895CF92DF92EF924F
:10251000FF920F931F93CF93DF93C8EDD0E0888194
:102520008F7E8883E7EDF0E080818160808384E0A6
:1025300082BF81E08093D90188818E7F888302EEFB
:1025400010E0F80110821092DA0081EEC82ED12C32
:10255000F601108288818F778883888180688883DC
:1025600088818F7D888319BC1092FF011092000230
:102570001092FE011092FD0190EEE92EF12CF70170
:1025800080818B7F808388818160888342E060E0E6
:1025900080E00E943518F60180818E7F8083F801EB
:1025A000808181608083808188608083F701808161
:1025B0008E7F8083888180618883DF91CF911F9196
:1025C0000F91FF90EF90DF90CF9008951F920F92A0
:1025D0000FB60F9211242F933F934F935F936F93F6
:1025E0007F938F939F93AF93BF93EF93FF938091CC
:1025F000E10082FF09C08091E20082FF05C0809166
:10260000E1008B7F8093E1008091DA0080FF2AC097
:102610008091D80080FF26C08091DA008E7F809361
:10262000DA008091D90080FF18C080E189BD82E185
:1026300089BD09B400FEFDCF81E08093FF01809148
:10264000D90181110FC00E9466120E9485128091EB
:10265000E20084608093E20005C019BC1092FF0183
:102660001092D9018091E10080FF17C08091E200B3
:1026700080FF13C08091E2008E7F8093E200809102
:10268000E20080618093E2008091D80080628093B4
:10269000D80019BC85E08093FF018091E10084FFA0
:1026A00034C08091E20084FF30C080E189BD82E1C6
:1026B00089BD09B400FEFDCF8091D8008F7D809345
:1026C000D8008091E1008F7E8093E1008091E2004C
:1026D0008F7E8093E2008091E20081608093E2002F
:1026E00080910002882311F084E007C08091E3000C
:1026F00087FD02C081E001C083E08093FF0110925A
:10270000DA010E9487170E947A098091E10083FF15
:1027100027C08091E20083FF23C08091E100877F82
:102720008093E10082E08093FF011092000280918B
:10273000E1008E7F8093E1008091E2008E7F8093A4
:10274000E2008091E20080618093E20042E060E07C
:1027500080E00E9435188091F00088608093F0003E
:10276000FF91EF91BF91AF919F918F917F916F9169
:102770005F914F913F912F910F900FBE0F901F903F
:1027800018951092E3021092E2020E94711EE5EA8F
:10279000F2E086E0DF011D928A95E9F71092AB0224
:1027A0001092EF020E94721D80E090E00E94640986
:1027B00080E090E00C944E09BF92CF92DF92EF92AE
:1027C000FF920F931F93CF93DF938C01C090E7028A
:1027D000D090E802E090E902F090EA0280917A025B
:1027E00090917B02A0917C02B0917D02C82AD92AE7
:1027F000EA2AFB2ACFE1D0E0D701C6010C2E04C0A3
:10280000B695A795979587950A94D2F780FF07C04C
:10281000BC2EB8018C2F0E948C09019719F42197C6
:1028200058F7B12C8B2DDF91CF911F910F91FF9015
:10283000EF90DF90CF90BF900895CF93DF93EC019E
:102840000E94DC13BE010E948C09DF91CF91089594
:102850000E941D14292F2F7092959F70E92FF0E090
:102860003297EE30F105B8F4E656FF4F0C947D2117
:10287000803F99F018F4803E70F40FC0843F59F403
:102880000CC0803E50F0813F31F407C0822F869506
:1028900086958695089580E0089581E00895292F12
:1028A000220F920F990F890F682F6695669566958E
:1028B000982F977085E0689FB001112440E050E0A8
:1028C00080E0FA01E60FF71FED5BFD4F208130E05D
:1028D000092E02C0369527950A94E2F72170332716
:1028E000042E01C0220F0A94EAF7822B4F5F5F4F3C
:1028F0004530510531F70895292F220F920F990F76
:10290000890FA82FA695A695A695877051E001C0BE
:10291000550F8A95EAF785E0A89FD001112420E0A1
:1029200030E070E0F901EA0FFB1FED5BFD4F4081E5
:10293000CB01022E02C0969587950A94E2F781702A
:102940009927819584278523842780832F5F3F4F94
:102950002530310539F708950F931F93AB01BC0162
:10296000CB01AA27BB270097A105B10511F0E0E133
:1029700003C0DB01CA01E0E0092F1A2F2B2F3327F8
:10298000011511052105310519F0E85FD901C801CC
:102990008C019D01F4E03695279517950795FA95DA
:1029A000D1F7011511052105310519F0EC5FD901A9
:1029B000C8018C019D01F2E0369527951795079582
:1029C000FA95D1F7011511052105310519F0EE5FD2
:1029D000D901C801B695A79597958795892B8A2B1C
:1029E0008B2B09F0EF5F56985E9825982D982698C6
:1029F0002E9827982F988E2F90E0FC013197E73082
:102A0000F105A8F4E855FF4F0C947D21259A2D9AE5
:102A10000EC0259A2D9A269A2E9A09C0259A2D9A8B
:102A200004C0259A2D9A269A2E9A279A2F9A409377
:102A30007A0250937B0260937C0270937D021F9117
:102A40000F910C94C1130F931F9341E050E060E08D
:102A500070E004C0440F551F661F771F8A95D2F798
:102A6000409550956095709580917A0290917B0287
:102A7000A0917C02B0917D028A019B010823192359
:102A80002A233B23C901B8011F910F910C94AC1468
:102A90000F931F9341E050E060E070E004C0440FEA
:102AA000551F661F771F8A95D2F780917A02909101
:102AB0007B02A0917C02B0917D028A019B01082BD0
:102AC000192B2A2B3B2BC901B8011F910F910C9494
:102AD000AC146093E7027093E8028093E90290934C
:102AE000EA020C94C113809142029091110289175D
:102AF00019F08F5F8770FBCF089580911002829547
:102B00008F7009F054C080910D02882309F44FC0E2
:102B100080914202A091110260910B0270910C020F
:102B200040910E0250910F02B6E08A1709F43FC09F
:102B300090E041155105C1F17F3F11F46F3FA1F1C4
:102B4000B89FF001B99FF00D1124EE5EFD4F218179
:102B500072132AC02081621327C02281211124C050
:102B6000238134812417350710F421503109241BA7
:102B7000350B283C3105C0F4209110022F702061E4
:102B80002093100226E0289FF001299FF00D1124C8
:102B9000E95EFD4F80818F70806180838BE092E0E1
:102BA0000E948E020C94731501968770BECF089513
:102BB000BF92CF92DF92EF92FF920F931F93CF932A
:102BC000DF93CDB7DEB761970FB6F894DEBF0FBEC7
:102BD000CDBF7C0185E0F701DE011D9601900D92CD
:102BE0008A95E1F7D7013C9111962C911197129695
:102BF0000C9112971396CD90DC90149750910B0284
:102C000060910C0280910E0290910F02009709F4DE
:102C100034C16F3F19F45F3F09F42FC1B0900D022A
:102C2000BB2009F4EDC040911002C816D90628F067
:102C3000F601E81BF90BCF0104C0809590958C0D2F
:102C40009D1D11E0883C910548F010E0407F09F09F
:102C5000A1C08BE092E00E948E0207C1842F807F8A
:102C600009F044C0621312C0531310C001110EC00A
:102C70004F704061409310028BE092E00E948E0200
:102C800080911002D70115968C932EC0CD2819F192
:102C90002F3F11F43F3FF9F0102F01111CC080911C
:102CA00042024091110256E0841709F45AC090E0A4
:102CB000589FF001599FF00D1124EE5EFD4F618188
:102CC000261306C06081361303C06281611103C000
:102CD00001968770E9CF102F002309F407C1809176
:102CE000100281608093100210E000C162130DC0D9
:102CF00053130BC0011109C080911002D701159622
:102D00008C93C7010E948E0296C03D872E878D85C9
:102D10009E850E9428148823C9F10023B9F12091CF
:102D20001002822F82958F7090E0029774F080914C
:102D30000B0290910C0298878F831986DB86CA86D6
:102D40002C87CE0107960E948E0286E0F701ABE049
:102D5000B2E001900D928A95E1F70E947D1511E095
:102D6000C5C03D872E878D859E850E941D14292F05
:102D700022952F7030E0223031050CF0ABC09F70EF
:102D800009F0A5C0805E883008F4B0C0C7010E9479
:102D90008E02E5CF621314C0531312C0011110C08C
:102DA00080911002F7018583C7010E948E0286E0A0
:102DB000EBE0F2E0DF011D928A95E9F71B2D96C04A
:102DC0003D872E878D859E850E9428148823F1F2E9
:102DD0000023E1F220911002822F82958F7090E003
:102DE00002970CF4B2CF80910B0290910C029A835F
:102DF00089831B82DD82CC822E83CE010196A3CFF4
:102E0000C816D90638F0C81AD90AB8ECCB16D104BE
:102E100050F007C0809590958C0D9D1D883C9105C4
:102E200010F010E022C0102F002309F4AFCF62137E
:102E30000BC0531309C086E0F701ABE0B2E001908C
:102E40000D928A95E1F752C03D872E878D859E852C
:102E50000E942814811179CF8091100281608093A3
:102E60001002C7010E948E0241C0EBE0F2E086E052
:102E7000DF011D928A95E9F739C0002309F486CF56
:102E80003D872E878D859E850E942814182F8823C4
:102E900009F47CCF86E0F701ABE0B2E001900D923F
:102EA0008A95E1F780910B0290910C020E941D140B
:102EB00092959F70963041F480910A0291E08927A3
:102EC00080930A02909309020E947D150FC0811120
:102ED00059CF0CC0243031050CF058CF9F7009F445
:102EE00051CFF7019581907F09F04CCF812F6196EA
:102EF0000FB6F894DEBF0FBECDBFDF91CF911F910B
:102F00000F91FF90EF90DF90CF90BF900895809148
:102F10000601882331F08091920287FF02C08EE182
:102F200001C086E0E1ECF2E0DF011D928A95E9F74D
:102F30000C94C113882341F080959091DA01892384
:102F40008093DA010C94711E0895882339F09091D2
:102F5000DA01892B8093DA010C94711E0895CF93C6
:102F6000C82F0E94431FC93349F42FEF83EC99E027
:102F7000215080409040E1F700C000008C2FCF919D
:102F80000C94DC1E0E94661D2091E4023091E50243
:102F90008217930758F00E94661D21E04091E402D9
:102FA0005091E5028417950769F40BC00E94661DD5
:102FB0002091E4023091E502821B930B21E00197FE
:102FC00009F420E0822F08952091E4003091E5007B
:102FD00095E64091EC00842F817040FF22C08091E3
:102FE000E80080FD1CC08091FF01882391F08530AE
:102FF00091F08091EB0085FD10C04091E40050916C
:10300000E5004217530729F39A01915011F784E024
:10301000089582E0089583E0089581E0089580E0B6
:1030200008954091E80042FFDECF089580910102AB
:1030300087FF11C08091E80082FD05C08091FF01EB
:103040008111F8CF11C08091E8008B770BC080917F
:10305000FF01882349F08091E80080FFF8CF80913C
:10306000E8008E778093E8000895982F973058F500
:103070009093E900981739F07091EC002091ED00E1
:103080005091F00003C0242F762F50E021FF19C08B
:103090003091EB003E7F3093EB003091ED003D7FAF
:1030A0003093ED003091EB0031603093EB00709382
:1030B000EC002093ED005093F0002091EE0027FFEC
:1030C00007C09F5FD3CF8F708093E90081E00895A0
:1030D00080E00895209107023091080226173707F3
:1030E00048F06115710539F42091E8002E7720939E
:1030F000E80001C0B90140E061157105A9F1209116
:10310000FF01222309F443C0253009F442C0209175
:10311000E80023FD40C02091E80022FD32C020914C
:10312000E80020FFE9CF4091F3002091F20030E069
:10313000342BFC01CF016115710559F028303105A0
:1031400040F481918093F100615071092F5F3F4FEE
:10315000F1CF41E02830310509F040E02091E8004E
:103160002E772093E800C8CF4111C9CF0AC08091C3
:10317000FF01882361F0853061F08091E80083FDD4
:103180000AC08091E80082FFF2CF80E0089582E0DB
:10319000089583E0089581E008958091BE02811131
:1031A00007C08091FF01843011F081E0089582E032
:1031B0000895CF93DF93CDB7DEB72A970FB6F89473
:1031C000DEBF0FBECDBF84B7877F84BF0FB6F89434
:1031D000A8958091600088618093600010926000E3
:1031E0000FBE80E8809361001092610085B780680F
:1031F00085BF85B7806885BF0E9466120E948512D0
:103200008091E20084608093E20078948091FF01D5
:103210008823A1F01091E9001F709091EC00892F94
:10322000817090FD80E8182B1092E9008091E800F1
:1032300083FD0E944D0F1F701093E90082E084BD52
:1032400093E095BD9AEF97BD80936E000E94E90BC5
:1032500090E090930801809307010E94B80C0E94AF
:10326000C70CA4E8B2E0E7E9F2E01EE0F12EFE0EA2
:1032700011921D92FE12FCCF8EE090E00E948321FD
:1032800080937E0290937F02FC010E962BEF219398
:10329000E817F907E1F780E090E00E941B218D3EDE
:1032A0009E4F11F00E94141E8CE090E00E941321AA
:1032B00090E0A0E0B0E08093800290938102A09320
:1032C0008202B093830289EA8093800089E0809330
:1032D000810024982C983F988AB18F7C8AB96E9887
:1032E000479A8BB180638BB9769A0E94600C80E01C
:1032F00090E00E941B218D3E9E4F11F00E94141EF3
:1033000082E090E00E9413218093AF0284E090E07D
:103310000E94132190E0909393028093920283E0A5
:1033200090E00E941321682F70E080E090E00E94FE
:10333000691589E091E09093950280939402992415
:103340009394EE24EA94CC24C394D12C50E1452EDE
:1033500062E1562E78E1A72EB12CE0E48E2E80910A
:10336000FF01853009F043C08091FF01843009F1ED
:10337000109296020FB6F894A895A09260000FBE26
:103380008092600083B7817F846083BF83B7816050
:1033900083BF7894889583B78E7F83BF0FB6F894E8
:1033A000A895809160008861809360001092600011
:1033B0000FBE8091FE01882391F20E94E90B90E0FC
:1033C00090930801809307010E94B80C0E94C70CDB
:1033D000E7E9F2E01192FE12FDCF0E943F0EE7E90D
:1033E000F2E081918111F2C0FE12FBCFB8CF0E94B2
:1033F0003F0EE0EBF2E0A7E9B2E000E010E0702F52
:103400006D9121912627B1F180E090E030E0782E97
:10341000A901082E02C0559547950A94E2F740FF8E
:1034200025C089837A83C60102C0880F991F7A94C8
:10343000E2F73C01862F90E08621972121E0892B3D
:1034400009F420E02B830E94661D8160782F9D8304
:103450008C8349815A816B818D810E94CE0CF80149
:10346000E055FD4F80816826608219C00196863044
:10347000910569F60F5F1F4F0E30110509F0BFCFA0
:10348000EE82EF8218860E94661D8160782F9A87EF
:1034900089874E815F8168858A850E94CE0C8091E4
:1034A000AC029091AD020E943C1D9C019091AB0238
:1034B000992321F02431310508F47CC08091A702C2
:1034C0001091A80281110BC0111194C02091A90282
:1034D000211190C02091AA0221118CC06BC09F3F86
:1034E00019F09F5F9093AB02181624F40E948B1C76
:1034F0008093A7028091A70287FF05C00E948B1CC2
:1035000081958093A702111624F40E948B1C80934E
:10351000A8028091A80287FF05C00E948B1C81959C
:103520008093A8023091A702332301F12091A802D1
:103530002223E1F045EB3403C0011124892F990FB8
:10354000990B009719F08093A70202C09092A702EE
:1035500035EB2303C0011124892F990F990B009794
:1035600019F08093A80202C09092A8028091A9024B
:10357000181624F40E94691C8093A9028091A90264
:1035800087FF05C00E94691C81958093A9028091E4
:10359000AA02181624F40E94691C8093AA02809142
:1035A000AA0287FF05C00E94691C81958093AA0228
:1035B0000E94721D1091AE020E947A09181709F438
:1035C000CECE0E947A098093AE02C9CE49BC59BCC6
:1035D00009B400FEFDCF8091D8008F7D8093D80084
:1035E0008091E00082608093E0008091E00081FDA6
:1035F000FCCFB5CE9F3F09F074CF7CCF8091DC012A
:103600000895CF93DF9300D01F92CDB7DEB72091FE
:10361000FF01243031F523E02983805891099B83F1
:103620008A8382E08093E9008FEF9091E8008150D7
:1036300095FD06C095ED9A95F1F700008111F5CF43
:103640008091E80085FF0DC040E050E063E070E04D
:10365000CE0101960E94160F8091E8008E7780932C
:10366000E8000F900F900F90DF91CF9108950F9386
:103670001F93CF93DF9300D01F92CDB7DEB78C019D
:103680000E94CD18823011F0843021F584E08983C6
:103690001B830A8382E08093E9008FEF9091E8001A
:1036A000815095FD06C095ED9A95F1F700008111C6
:1036B000F5CF8091E80085FF0DC040E050E063E069
:1036C00070E0CE0101960E94160F8091E8008E777F
:1036D0008093E8000F900F900F90DF91CF911F9192
:1036E0000F910895CF93DF93EC010E94CD188230A3
:1036F00011F08430F9F482E08093E9009FEF80912B
:10370000E800915085FD06C085ED8A95F1F700002F
:103710009111F5CF8091E80085FF0CC040E050E0AA
:1037200066E070E0CE010E94160F8091E8008E776F
:103730008093E800DF91CF910895CF93DF93EC0160
:103740000E94CD18823011F08430D9F580910601A5
:10375000882339F08091920287FF03C060E282E003
:1037600002C068E081E08093E9008FEF9091E8006B
:10377000815095FD06C095ED9A95F1F700008111F5
:10378000F5CF8091E80085FF1CC080910601811172
:1037900005C040E050E068E070E003C070E040E049
:1037A00050E0CE010E94160F8091E8008E77809342
:1037B000E80080E2FE01ADEDB1E001900D928A9546
:1037C000E1F7DF91CF910895803F39F48091A8020D
:1037D00087FF6CC01092A80269C0813F29F48091D4
:1037E000A8021816BCF362C09091A702823F29F488
:1037F00097FF5CC01092A70259C0833F19F41916B5
:10380000CCF354C0893F41F48091A90218160CF002
:103810004DC01092A9024AC08A3F29F48091A902A2
:1038200087FF44C0F6CF8B3F39F48091AA0287FF0F
:103830003DC01092AA023AC08C3F29F48091AA029E
:103840001816BCF333C0843F21F48091A6028E7F0A
:1038500017C0853F21F48091A6028D7F11C0863F5D
:1038600021F48091A6028B7F0BC0873F21F48091C9
:10387000A602877F05C0883F31F48091A6028F7E23
:103880008093A60213C08D3F21F48091EF028E7FBA
:103890000BC08E3F21F48091EF028D7F05C08F3FDA
:1038A00029F48091EF028B7F8093EF028091A70231
:1038B00081110EC08091A80281110AC08091A902D5
:1038C000811106C08091AA02811102C01092AB0240
:1038D00008958091EF0280FD16C081FD16C082FD23
:1038E00018C08091AB02882391F0883290F428E0D0
:1038F000829FC001112468E270E00E946921862F36
:10390000672B29F007C082E0089584E0089581E0E4
:10391000089588E008958091EF0280FD17C081FD31
:1039200017C082FD19C08091AB02882399F08C33B7
:1039300098F423E2829FC00111246CE370E00E949E
:103940006921862F672B49F481E0089588E0089566
:1039500081E1089585E0089583E20895803F21F490
:103960000E948B1C819504C0813F29F40E948B1C0E
:103970008093A8020895823F21F40E948B1C8195B8
:1039800004C0833F29F40E948B1C8093A7020895F2
:10399000893F19F40E94691C05C08A3F31F40E94D6
:1039A000691C81958093A90208958B3F21F40E94A0
:1039B000691C819504C08C3F29F40E94691C809386
:1039C000AA020895843F21F48091A602816017C065
:1039D000853F21F48091A602826011C0863F21F4C8
:1039E0008091A60284600BC0873F21F48091A602DB
:1039F000886005C0883F31F48091A6028061809381
:103A0000A60208958D3F21F48091EF0281600BC0E2
:103A10008E3F21F48091EF02826005C08F3F29F430
:103A20008091EF0284608093EF02089578941F9252
:103A30000F920FB60F9211248F939F93AF93BF9362
:103A40008091EB029091EC02A091ED02B091EE0218
:103A50000196A11DB11D8093EB029093EC02A093FF
:103A6000ED02B093EE02BF91AF919F918F910F90B5
:103A70000FBE0F901F901895CF92DF92EF92FF929A
:103A80000F931F932FB7F8944091EB025091EC02E3
:103A90006091ED027091EE022FBF6A017B01EE246E
:103AA000FF248C0120E030E0C016D106E206F306C8
:103AB00010F4415051099A01281B390BC9011F917B
:103AC0000F91FF90EF90DF90CF9008952FB7F8946B
:103AD0008091EB029091EC02A091ED02B091EE0288
:103AE0002FBF0895E0919402F0919502309749F02C
:103AF00082E08093A5020480F581E02D85EA92E0C2
:103B000009950E94661D9093AD028093AC020895C2
:103B10001F920F920FB60F9211248F939F93AF9322
:103B2000BF9380919602811113C08091EB02909116
:103B3000EC02A091ED02B091EE024196A11DB11DE3
:103B40008093EB029093EC02A093ED02B093EE020F
:103B5000BF91AF919F918F910F900FBE0F901F90CB
:103B6000189520910601222321F02091920227FD31
:103B700004C0FC013296089619C0262F269526957A
:103B800026952E31C0F4FC01E20FF11D677081E033
:103B900090E001C0880F6A95EAF7809592818923A9
:103BA000828308953196E817F90729F020812613BA
:103BB000F9CF1082F7CF089520910601222321F03A
:103BC0002091920227FD05C0FC0132962FEF30E0D4
:103BD00019C0262F2695269526952E3120F5FC0115
:103BE000E20FF11D677081E090E001C0880F6A95D7
:103BF000EAF79281892B828308952F3F39F03F5F46
:103C0000363041F041914613F8CF0DC04111F7CF46
:103C1000232FF5CF2F3F39F0FC01E20FF11D27FDD7
:103C2000FA956283089508956DEE7EEF80E090E04E
:103C30000E943F2160E082E090E00E94212160E04C
:103C400083E090E00E9421211092E7021092E802A6
:103C50001092E9021092EA0260E084E090E00E9493
:103C6000212160E085E090E00E94212160E086E073
:103C700090E00E9421216FEF87E090E00E942121D7
:103C800040E050E0BA0188E090E00E94332160E01B
:103C90008DE090E00E94212140E050E0BA0188E1EF
:103CA00090E00E94332160E087E190E00E942121B2
:103CB00040E050E0BA018FE090E00E94332140E004
:103CC00050E0BA0183E190E00C9433218091E60248
:103CD000882331F01092E6021092E5021092E4027D
:103CE00008959091E3028091DA01892B9091E2028C
:103CF000892B8093BF028091E602882321F10E94E4
:103D0000C21781110E94661E9091E6028091BF0247
:103D1000892B8093BF0280910601882331F0809126
:103D2000920287FF02C08EE101C086E0E1ECF2E082
:103D300090E0815028F021912223D9F39F5FF9CFA1
:103D400091110E94661EE0919402F09195023097C5
:103D5000A9F080910601882359F08091920287FF93
:103D600007C08091BF028093C00285E08093BF02AC
:103D70000280F381E02D8FEB92E009940895209169
:103D8000E102809582238093E102982F977099F445
:103D900030E0482F082E000C550B2417350759F03A
:103DA0008595859585950E9423151092E1021092C4
:103DB000E0021092DF020895882309F463C082387C
:103DC00069F40E947A0981FF5DC069E38FEB92E09C
:103DD0000E94DC1D0E94711E69E30EC0833891F4BD
:103DE0000E947A0980FF4EC063E58FEB92E00E944B
:103DF000DC1D0E94711E63E58FEB92E00E94B11DF5
:103E00000C94711E843869F40E947A0982FF3AC0CA
:103E100067E48FEB92E00E94DC1D0E94711E67E454
:103E2000EBCF9CEF980F913A10F4682FE5CF90E21A
:103E3000980F983088F4877021E030E0A90102C023
:103E4000440F551F8A95E2F7CA0180959091DA01D7
:103E500089238093DA01D4CF9BE5980F933020F427
:103E600080E090E00C94640998E5980F973120F475
:103E700080E090E00C944E09803F20F00E94E41B0B
:103E80000C94721D0895882309F416C18238B1F488
:103E90000E947A0981FD10C169E38FEB92E00E94D4
:103EA000DC1D0E94711E2FEF41EE54E02150404076
:103EB0005040E1F700C0000069E317C08338D9F42F
:103EC0000E947A0980FDF8C063E58FEB92E00E94C2
:103ED000DC1D0E94711E8FEF91EE24E08150904016
:103EE0002040E1F700C0000063E58FEB92E00E9404
:103EF000B11D0C94711E8438B1F40E947A0982FDC0
:103F0000DBC067E48FEB92E00E94DC1D0E94711E13
:103F10004FEF51EE84E0415050408040E1F700C047
:103F2000000067E4E2CF9CEF980F913A30F4682FDD
:103F30008FEB92E00E94DC1DDCCF90E2980F98306E
:103F400080F4877021E030E0A90102C0440F551FC2
:103F50008A95E2F7CA019091DA01892B8093DA0100
:103F6000C8CF9BE5980F933070F4853A29F0863AD4
:103F700031F083E890E005C081E890E002C082E87B
:103F800090E00C94640998E5980F973108F08EC082
:103F9000883A09F445C0893A09F445C08A3A09F4D7
:103FA00045C08B3A09F445C08C3A09F445C08B3BB7
:103FB00009F445C08C3B09F445C08D3A09F445C06D
:103FC000803B09F445C08E3A09F445C08F3A09F4A4
:103FD00045C0813B09F445C0823B09F445C0833BA1
:103FE00009F445C0843B09F445C0853B09F445C04C
:103FF000863B09F445C0873B09F445C0883B09F47A
:1040000045C0893B09F445C08D3B09F445C08E3B52
:1040100009F445C08A3B09F445C080E090E044C003
:1040200082EE90E041C089EE90E03EC08AEE90E0E2
:104030003BC085EB90E038C086EB90E035C083EB69
:1040400090E032C084EB90E02FC087EB90E02CC072
:104050008CEC90E029C08DEC90E026C083E891E0E4
:1040600023C08AE891E020C082E991E01DC084E984
:1040700091E01AC081E292E017C083E292E014C09E
:1040800084E292E011C085E292E00EC086E292E006
:104090000BC087E292E008C08FE690E005C080E7A1
:1040A00090E002C08AE292E00C944E09803F20F03A
:1040B0000E94AE1C0C94721D08951092B9008CE001
:1040C0008093B8000895EF92FF920F931F93CF93C0
:1040D000DF93182FEB011092BC0084EA8093BC00A0
:1040E0000E94661D7C019091BC0097FD0EC0CF3FE1
:1040F0008FEFD807C1F30E94661D8E199F098C1798
:104100009D0788F38EEF9FEF2EC09091B900987FA6
:10411000983041F09091B900987F903119F08FEF6D
:104120009FEF21C01093BB0084E88093BC000E94E5
:10413000661D8C019091BC0097FD0CC0CF3F8FEFA6
:10414000D807C1F30E94661D801B910B8C179D0739
:1041500088F3D8CF8091B900887F883111F08034FE
:10416000F1F680E090E0DF91CF911F910F91FF90E9
:10417000EF9008950F931F93CF93DF93EB018093FC
:10418000BB0084E88093BC000E94661D8C01909166
:10419000BC0097FD0EC0CF3F8FEFD807C1F30E9440
:1041A000661D801B910B8C179D0788F38EEF9FEF88
:1041B0000CC02091B900287F81E090E0283211F4F2
:1041C00080E090E0919581959109DF91CF911F91C9
:1041D0000F9108950F931F93CF93DF93EC0184E821
:1041E0008093BC000E94661D8C019091BC0097FDDD
:1041F0000EC0CF3F8FEFD807C1F30E94661D801B12
:10420000910B8C179D0788F38EEF9FEF03C0809171
:10421000BB0090E0DF91CF911F910F91089584E949
:104220008093BC000895F999FECF92BD81BDF89AA4
:10423000992780B50895A8E1B0E042E050E00C94E1
:104240004721262FF999FECF92BD81BDF89A01979B
:1042500000B4021639F01FBA20BD0FB6F894FA9ACE
:10426000F99A0FBE08950396272F0E9422210E94DB
:104270002121252F0E942221242F0C9422210196F6
:10428000272F0E9422210C942121DC01CB01FC016B
:10429000F999FECF06C0F2BDE1BDF89A319600B49F
:1042A0000D9241505040B8F70895AA1BBB1B51E135
:1042B00007C0AA1FBB1FA617B70710F0A61BB70B96
:1042C000881F991F5A95A9F780959095BC01CD013B
:1042D000089597FB072E16F4009407D077FD09D0B8
:1042E0000E94552107FC05D03EF4909581959F4F83
:1042F0000895709561957F4F0895EE0FFF1F05900B
:10430000F491E02D0994CF93DF938230910510F45E
:1043100082E090E0E091F202F091F30220E030E0E0
:10432000C0E0D0E0309711F1408151814817590722
:10433000C0F04817590761F482819381209719F0E2
:104340009B838A832BC09093F3028093F20226C052
:104350002115310519F04217530718F49A01BE01CF
:10436000DF01EF010280F381E02DDCCF2115310563
:1043700009F1281B390B2430310590F412968D91E8
:104380009C9113976115710521F0FB019383828342
:1043900004C09093F3028093F202FD01329644C070
:1043A000FD01E20FF31F81939193225031092D9368
:1043B0003C933AC02091F0023091F102232B41F45A
:1043C00020910201309103013093F1022093F00219
:1043D00020910001309101012115310541F42DB7E3
:1043E0003EB74091040150910501241B350BE0912B
:1043F000F002F091F102E217F307A0F42E1B3F0B3D
:104400002817390778F0AC014E5F5F4F2417350746
:1044100048F04E0F5F1F5093F1024093F0028193DA
:10442000919302C0E0E0F0E0CF01DF91CF910895D9
:104430000F931F93CF93DF93009709F48CC0FC0177
:104440003297138212820091F2021091F302011549
:10445000110581F420813181820F931F2091F00298
:104460003091F1022817390779F5F093F102E093C2
:10447000F00271C0D80140E050E0AE17BF0750F421
:1044800012962D913C911397AD012115310509F13B
:10449000D901F3CF9D01DA013383228360817181D9
:1044A000860F971F8217930769F4EC0128813981E1
:1044B000260F371F2E5F3F4F318320838A819B81D8
:1044C00093838283452B29F4F093F302E093F20265
:1044D00042C01396FC93EE931297ED0149915991C6
:1044E0009E01240F351FE217F30771F4808191813B
:1044F000840F951F029611969C938E9382819381CF
:1045000013969C938E931297E0E0F0E0D8011296F8
:104510008D919C911397009719F0F8018C01F6CFBB
:104520008D919C9198012E5F3F4F820F931F209198
:10453000F0023091F1022817390769F4309729F415
:104540001092F3021092F20202C0138212821093B0
:10455000F1020093F002DF91CF911F910F91089526
:04456000F894FFCFFD
:104564000000F4022000012000FE1A9D1B721B01B2
:104574001B371B000D010D020D030D040D050D006D
:104584000C010C020C030C040C050C000B010B02B7
:104594000B030B040B050B000A010A020A030A04AD
:1045A4000A050A00090109020903090409050900A9
:1045B40008010802080308040805080007010702A7
:1045C400070307040705070006010602060306049D
:1045D4000605060005010502050305040505050099
:1045E4000401040204030404040504000301030297
:1045F400030303040305030002010202020302048D
:104604000205020001010102010301040105010088
:0C4614000001000200030004000500008B
:00000001FF
