:100000000C9429020C9446020C9446020C9446026D
:100010000C9446020C9446020C9446020C94460240
:100020000C9446020C9446020C94AA0B0C94921069
:100030000C94261D0C9446020C9446020C94460225
:100040000C9446020C9446020C9446020C94460210
:100050000C9446020C94810C0C9446020C944602BB
:100060000C9446020C9446020C9446020C944602F0
:100070000C9446020C9446020C9446020C944602E0
:100080000C9446020C9446020C9446020C944602D0
:100090000C9446020C9446020C9446020C944602C0
:1000A0000C9446020C9446020C9446020501098009
:1000B000A101850319012AB700150126B700950192
:1000C00075108100C0050C0901A101850419012AE0
:1000D000A002150126A002950175108100C005013E
:1000E0000906A1018505050719E029E71500250185
:1000F0009508750181020507190029EF15002501F2
:1001000095F075018102050819012905950575010C
:100110009102950175039101C005010902A1010930
:1001200001A100050919012905150025019505758D
:10013000018102950175038101050109300931151D
:1001400081257F95027508810609381581257F95DF
:100150000175088106050C0A38021581257F950175
:1001600075088106C0C005010906A101050719E04F
:1001700029E715002501950875018102950175088B
:1001800081010507190029FF150026FF0095067556
:100190000881000508190129059505750191029549
:1001A0000175039101C035002B002900D85CE000E7
:1001B00000001E00140004001D00E30001001F00E9
:1001C0001A0016001B000100015120000800070062
:1001D0000600E2002C0021001500090019000100B2
:1001E0000100220017000A000500000001002300A2
:1001F000010000002F0000000100240001000000A9
:1002000030000000010025001C000B001100000060
:100210000100260018000D0010002C00010027002E
:100220000C000E003600010028002D0012000F0007
:100230003700010002512E00130033003800010086
:1002400001002A0031003400D95CE40000002900DC
:10025000010001000100010000003A001E0220021E
:100260002202010001003B001F02210223020100C3
:1002700001003C002F0226022F00010001003D007A
:10028000300227023000010001003E00310235003B
:100290003502000001003F000100000001000000E5
:1002A00001004000010000000100000001003F00CB
:1002B0000100500024020000010040002400510011
:1002C0001E00010001004300250052001F003700FE
:1002D0000100440026004F002000270001004500D7
:1002E00025022E0231002E0001004C0045000100C5
:1002F00001000100000001000100010001000100F7
:1003000000000100010001000100010001000100E6
:100310000100F2000100010001000100F000F10005
:100320000100F400010001000100F3000100F500EC
:1003300001000100010001000100000001000100B6
:1003400001000000010000000100010001000000A8
:10035000010000000100010001000100400F000049
:10036000010001003B0F3C0F3D0F010001000100A7
:1003700001003A0F01000100010001003E0F0100E1
:100380003F0F010001000100010001000100010018
:10039000010001000100010001000100000009024C
:1003A0005400030100A0FA09040000010301010048
:1003B0000921110100012240000705810308000AFC
:1003C00009040100010301020009211101000122B9
:1003D0004D000705820308000A090402000103001A
:1003E0000000092111010001226D0007058303208F
:1003F000000A12010002000000089732744901004F
:100400000102000116034500720067006F004400FE
:100410006F007800200045005A00000030035A00A9
:1004200053004100200054006500630068006E0026
:100430006F006C006F006700790020004C006100C5
:1004400062007300200049006E0063000000040396
:10045000090411241FBECFEFDAE0DEBFCDBF11E0EB
:10046000A0E0B1E0E8EAFFE302C005900D92A435F8
:10047000B107D9F722E0A4E5B1E001C01D92AD3784
:10048000B207E1F70E94941A0C94A71F0C94000085
:10049000E8EDF0E080818E7F80831092E200109280
:1004A000DA001092E100A0EEB0E08C9181608C93B4
:1004B00080818F77808319BCA7EDB0E08C918E7F0F
:1004C0008C9380818F7E80831092470208952091C3
:1004D000E4003091E50095E6A9012091EC00822F1F
:1004E000817020FF06C08091E80080FF06C080E098
:1004F00008952091E80022FD1AC080916C028823A3
:1005000089F0853089F08091EB0085FD0FC0209146
:10051000E4003091E50042175307F9F29150E1F6FB
:1005200084E0089582E0089583E0089581E00895CD
:10053000EF92FF920F931F93CF937C018B010E9448
:100540006702C82F811117C08091E80085FD0BC09C
:100550008091E8008E778093E8000E9467028823EC
:1005600099F3C82F08C0F70181917F018093F100B2
:100570000150110949F78C2FCF911F910F91FF90D6
:10058000EF90089580916E0287FF13C08091E8007C
:1005900082FF06C08091E8008B778093E80004C05A
:1005A00080916C028111F2CF089580916C028823B2
:1005B000D9F38091E80080FFF8CF8091E8008E7732
:1005C000ECCF982F9093E900242F762F50E08917D5
:1005D00031F07091EC002091ED005091F00021FD80
:1005E00007C09F5F973071F78093E90081E008951D
:1005F0003091EB003E7F3093EB003091ED003D7F7A
:100600003093ED003091EB0031603093EB0070934C
:10061000EC002093ED005093F0002091EE0027FDB8
:10062000E0CF80E00895CF92DF92EF92FF920F9398
:100630001F93CF93DF93C8EDD0E088818F7E8883AE
:10064000E7EDF0E080818160808384E082BF81E01B
:100650008093470288818E7F888302EE10E0F80144
:1006600010821092DA0081EEC82ED12CF601108291
:1006700088818F77888388818068888388818F7D4F
:10068000888319BC10926C0210926D0210926B025A
:1006900010926A0290EEE92EF12CF70180818B7F97
:1006A000808388818160888342E060E080E00E94EE
:1006B000E102F60180818E7F8083F8018081816074
:1006C0008083808188608083F70180818E7F808332
:1006D000888180618883DF91CF911F910F91FF9076
:1006E000EF90DF90CF900895FC018091740290917B
:1006F000750286179707A0F06115710529F490918E
:10070000E8009E779093E80090E06115710551F440
:10071000911108C08091E80082FF34C080E0089504
:10072000BC01F2CF80916C028823C1F18530C1F108
:100730008091E80083FD30C08091E80082FDEACF1F
:100740008091E80080FFE1CF8091F3002091F200DA
:10075000382F6115710519F02830310558F091E0F6
:100760002830310509F090E02091E8002E772093A1
:10077000E800CBCF81918093F100615071092F5F28
:100780003F4FE7CF80916C02882341F0853041F0E4
:100790008091E80083FFBECF81E0089582E0089554
:1007A00083E0089580914902089590913302803F3B
:1007B00059F48091340287FF0DC0109234029111D8
:1007C0000BC010922F0208C0813F81F48091340247
:1007D00018169CF3992381F080913502909136028E
:1007E000892B09F064C010922C020895823F49F4CD
:1007F00097FFF0CF10923302809134028111ECCF39
:10080000E0CF833F19F41916ACF3E4CF2091350201
:10081000893F29F41216F4F610923502DBCF8A3F95
:1008200019F427FFD7CFF8CF209136028B3F29F458
:1008300027FFD0CF10923602CDCF8C3F19F412167D
:10084000CCF3C8CF843F31F4809132028E7F809305
:100850003202C0CF853F21F4809132028D7FF7CFE5
:10086000863F21F4809132028B7FF1CF873F21F4C4
:1008700080913202877FEBCF883F21F48091320252
:100880008F7EE5CF8D3F31F4809100028E7F809383
:100890000002A0CF8E3F21F4809100028D7FF7CF20
:1008A0008F3F09F097CF809100028B7FF0CF0895A2
:1008B0008091000280FD1AC081FD14C082FD14C029
:1008C00080912C02882391F08C3370F427E0829F72
:1008D000C00111246CE370E00E941A1E862F672B62
:1008E00029F0089583E0089587E0089581E0089550
:1008F0008091000280FD16C081FD16C082FD18C0E7
:1009000080912F02882391F08C3390F423E2829F10
:10091000C00111246CE370E00E941A1E862F672B21
:1009200049F0089588E0089581E1089585E00895EB
:1009300083E2089581E00895803F31F40E947804B5
:100940008195809334020895813F19F40E947804C0
:10095000F8CF823F31F40E9478048195809333026E
:100960000895833F19F40E947804F8CF893F29F451
:100970000E9458048093350208958A3F21F40E9412
:1009800058048195F7CF8B3F31F40E94580481952C
:100990008093360208958C3F19F40E945804F8CFD2
:1009A000843F31F480913202816080933202089555
:1009B000853F21F4809132028260F7CF863F21F497
:1009C000809132028460F1CF873F21F4809132021E
:1009D0008860EBCF883F21F4809132028061E5CFBF
:1009E0008D3F31F480910002816080930002089570
:1009F0008E3F21F4809100028260F7CF8F3FB9F7DC
:100A0000809100028460F1CF9C014FB7F8948091EF
:100A1000FC019091FD01A091FE01B091FF014FBF3B
:100A2000821B930B0895209112012223C9F020917B
:100A3000190227FF15C0E62FE695E695E695EE31FB
:100A4000D8F4E80FF92FF11D677021E030E001C004
:100A5000220F6A95EAF72095828128232283089540
:100A6000FC01329608962191621303C0DF011197B1
:100A70001C92E817F907B9F7089520911201222373
:100A8000C1F02091190227FF14C0E62FE695E695E4
:100A9000E695EE31F8F4E80FF92FF11D677021E0CB
:100AA00030E001C0220F6A95EAF78281822B8283AF
:100AB0000895FC0132962FEF30E04191641751F018
:100AC0002F3F19F4411101C0232F3F5F3630A9F7A2
:100AD0002F3F09F40895820F911D27FD9A95FC017F
:100AE000628308958091F701882331F01092F70115
:100AF0001092F6011092F5010895E92FEE0FE90F1B
:100B0000EE0F8E0F982F977086958695869525E027
:100B1000829FF0011124E854FE4F50E040E080E055
:100B2000219130E0092E02C0369527950A94E2F70C
:100B300021703327042E01C0220F0A94EAF7822B7A
:100B40004F5F5F4F4530510559F70895E92FEE0F7C
:100B5000E90FEE0F8E0F982F977041E001C0440F00
:100B60009A95EAF786958695869595E0899FF00196
:100B70001124E854FE4F30E020E070E05191DF0195
:100B80001197CB01022E02C0969587950A94E2F741
:100B9000817081958527842385278C932F5F3F4F14
:100BA0002530310559F708958091B701909186015C
:100BB000981301C008958F5F8770FACF20917D014F
:100BC00030917E012817390771F090937E01809350
:100BD0007D01E0911B02F0911C02309721F000840E
:100BE000F185E02D0994089520917B0130917C01DD
:100BF0002817390771F090937C0180937B01E09175
:100C00001B02F0911C02309721F00680F781E02D45
:100C100009940895E0911B02F0911C02309721F095
:100C20000190F081E02D099480E0089590911902DF
:100C300092FF06C0282F28712830F9F4877F84603E
:100C400093FF06C0282F28712831F1F4877E846134
:100C500020911A0220FF06C0382F38713830D9F49D
:100C6000877F816021FF06C0282F28712831D1F4A9
:100C7000877E816194FD877E0895282F247124301A
:100C8000F9F68B7F8860DCCF282F2471243101F79F
:100C90008B7E8861DDCF382F3171313019F78E7F2F
:100CA0008860E0CF282F2171213121F78E7E886165
:100CB000E1CFCF93DF93972F70E026E0929F600DF6
:100CC000711D1124FB0134E5839FE00DF11D1124FA
:100CD000EE0FFF1FEA55FE4FC591D491CE01C238E9
:100CE000D105B9F1E8F5C133D10509F499C050F542
:100CF000C932D10509F48DC0CA32D10509F497C0B3
:100D0000C11521E5D20708F0BFC0C11530E5D307F2
:100D100008F016C1C83ED10508F09DC0C03ED105FF
:100D200068F5C83AD10508F089C0C53AD10508F080
:100D3000FFC0C130D10511F1209709F443C02497B9
:100D4000E8F440C0C533D10509F45CC0C933D1050E
:100D5000B9F620911902237089F080EE90E00EC060
:100D6000C33ED10591F168F4C03ED105F9F0C23E11
:100D7000D10531F62091190222FD20C0DF91CF91DB
:100D80000895C63ED10561F1C73ED10581F1C43E4B
:100D9000D10509F0B5CF20911A0221FFEFCF809144
:100DA000190284FD0FC087EE90E0E8CF2091190270
:100DB00020FD12C130911A0230FFE0CF83EE90E0A7
:100DC00024FFDCCF90E080E0D9CF2091190222FDF2
:100DD00006C130911A0230FDC0CF24FFCFCFF2CF31
:100DE0002091190223FFCACF24FDECCFDCCF209144
:100DF000190223FDF7C030911A0231FFEECF84EEC5
:100E000090E0BCCF2091190225FFB8CF89E290E095
:100E1000B5CF2091190225FFB1CF85E390E0AECF89
:100E20002091190226FFAACF8AE290E0A7CF209155
:100E3000190226FFA3CF81E390E0A0CFCF3BD105DD
:100E400008F6C85AD0E0CC0FDD1FCA5EDE4F88819D
:100E50009981946493CFC11520E2D20760F4C11543
:100E600031E0D30708F08ACFCE019065C03FD105AD
:100E700008F084CFA7CFC11580E4D80708F4A2CF2B
:100E8000CE019F70906A7ACFC11595E5D90710F50C
:100E9000C11524E5D20708F088C0C11533E5D30792
:100EA00008F06FC0C11582E5D80708F465C09E013F
:100EB0002370332781E090E002C0880F991F2A95A4
:100EC000E2F7C695C69520E2C29FE00111248C2B63
:100ED0009D2B50C0C11599E5D907A0F4C11528E58F
:100EE000D20708F067C0C11536E5D30708F06ACF0E
:100EF0008C2F0E94160690E0982F882788279F71D4
:100F000090623CCFC1158AE5D80708F458C0CE01DD
:100F100090568115904208F055CF8D2F8F710E9409
:100F2000160690E0982F882788279F718C2BE8CF92
:100F3000C55AD0E0CD5EDE4F888190E090641ECF30
:100F40009E01E4E036952795EA95E1F723708C2F12
:100F500086958695837030E2839FC0011124922B81
:100F6000C37021E030E002C0220F331FCA95E2F7C0
:100F7000822B932B9C6802CF9C2F8827816F906ACD
:100F8000FDCE9E012370332781E090E002C0880FE0
:100F9000991F2A95E2F7C695C69530E2C39FE001F6
:100FA00011248C2B9D2B9A68E9CE9C2F8827846F67
:100FB000906AE4CE9C2F8827806F906ADFCE8C2FBA
:100FC0008F700E94160634E0D695C7953A95E1F7E2
:100FD000CF709C2F9069D2CE89E390E0CFCE82EE85
:100FE00090E0CCCE86EE90E0C9CEBF92CF92DF9259
:100FF000EF92FF920F931F93CF93DF938C01C090DA
:101000001502D0901602E0901702F090180280911D
:10101000F8019091F901A091FA01B091FB01C82A61
:10102000D92AEA2AFB2ACFE1D0E0BC2ED701C6019B
:101030000C2E04C0B695A795979587950A94D2F77C
:1010400080FD0EC0219788F7B12C8B2DDF91CF91B9
:101050001F910F91FF90EF90DF90CF90BF90089578
:10106000B8018C2F0E945906019761F3EECFCF9300
:10107000DF93EC010E94F507BE01DF91CF910C9444
:1010800059060E943708292F2F7092959F70925011
:101090009E3078F4E92FF0E0E755F04E0C942E1EC8
:1010A000803F19F020F4883E20F481E00895843FC9
:1010B000E1F380E00895883EC0F3813FD1F7F5CF9A
:1010C000822F869586958695089527982F9808955E
:1010D00026982E98089525982D98089556985E98EC
:1010E0000895279A2F9A0895269A2E9A0895259A58
:1010F0002D9A0895CF92DF92EF92FF92CF936B01DA
:101100007C01C701AA27BB27C0E10097A105B10553
:1011100019F4D701CB01C0E0492F5A2F6B2F772745
:10112000411551056105710519F0C85FDB01CA0160
:10113000AC01BD01E4E07695679557954795EA9532
:10114000D1F7411551056105710519F0CC5FDB013F
:10115000CA01AC01BD0132E0769567955795479578
:101160003A95D1F7411551056105710519F0CE5F2A
:10117000DB01CA01B695A79597958795892B8A2B90
:101180008B2B09F0CF5F0E946E080E946B080E94B3
:1011900068080E946508C150C73040F4EC2FF0E0A9
:1011A000E954F04E0C942E1E0E947708C701B60138
:1011B000CF91FF90EF90DF90CF9008950E94770835
:1011C0000E947408F3CF0E9477080E947108EECF46
:1011D0000E9477080E947408F8CF209828982198D8
:1011E000299822982A9823982B9852985A9853987D
:1011F0005B983E98469808958098889A8198899A35
:1012000084988C9A85988D9A86988E9A87988F9ACA
:101210000895CF93DF9300D00F92CDB7DEB79091B2
:101220006C02943019F589837B836A8383E0809311
:10123000E9008FEF9091E800815095FD06C095ED93
:101240009A95F1F700008111F5CF8091E80085FFB4
:101250000DC050E040E063E070E0CE0101960E94D6
:1012600098028091E8008E778093E8000F900F90AD
:101270000F90DF91CF910895BC0184E00C9409098F
:10128000BC0183E00C9409099C0182E08093E90091
:101290009FEF8091E800915085FD06C085ED8A950D
:1012A000F1F700009111F5CF8091E80085FF0CC0A7
:1012B00050E040E065E070E0C9010E949802809132
:1012C000E8008E778093E8000895CF93DF93EC01D8
:1012D000809112018823B1F18091190287FF32C0F9
:1012E00060E283E08093E9008FEF9091E800815005
:1012F00095FD06C095ED9A95F1F700008111F5CFA7
:101300008091E80085FF1BC08091120170E050E0E1
:1013100040E0811104C050E040E068E070E0CE01A0
:101320000E9498028091E8008E778093E80080E226
:10133000FE01AAE4B2E001900D928A95E1F7DF91F7
:10134000CF91089568E081E0CDCFEF92FF920F93A7
:101350001F93CF93DF930E946E080E946B080E9438
:1013600068080E94650888E8E82EF12C8FEF90E06D
:10137000F701918380830AE810E0F801918380836C
:10138000CCE8D0E0998388830E947708FFEF20E7BC
:1013900082E0F15020408040E1F700C000000E9450
:1013A00074089FEFE0E7F2E09150E040F040E1F791
:1013B00000C000000E9471082FEF80E792E02150EA
:1013C00080409040E1F700C000000E946B08EFEF02
:1013D000F0E722E0E150F0402040E1F700C00000DB
:1013E0000E9468088FEF90E7E2E081509040E04073
:1013F000E1F700C000000E94650880910302877039
:10140000FFEF8F9FC001112495958795959587953E
:101410009927F70191838083F801918380839983D1
:1014200088830E946E080E946B080E946808DF9102
:10143000CF911F910F91FF90EF900C946508CF937F
:1014400084E090E00E94341EC82F81E290E00E9468
:10145000341E982F8C2FCF9108956FEE7EEF90E081
:1014600080E00E94661E60E082E090E00E94481EDC
:1014700060E083E090E00E94481E1092F801109214
:10148000F9011092FA011092FB0160E084E090E013
:101490000E94481E60E081E290E00E94481E60E0E9
:1014A00085E090E00E94481E60E086E090E00E94A7
:1014B000481E6FEF87E090E00E94481E40E050E039
:1014C000BA0188E090E00E945A1E60E08DE090E052
:1014D0000E94481E40E050E0BA0188E190E00E947E
:1014E0005A1E60E087E190E00E94481E40E050E014
:1014F000BA018CE190E00E945A1E60E080E290E028
:101500000E94481E40E050E0BA0188E190E00E944D
:101510005A1E1092030210920402109205021092B9
:10152000060284E08061809303024091030250919F
:10153000040260910502709106028FE090E00E9423
:101540005A1E40E050E0BA0183E190E00C945A1E2C
:10155000CF93C82F873070F58091060190910701D5
:10156000892B89F564E670E080E40E94531D909316
:10157000070180930601892BD1F464E670E082E1D3
:101580000E94AF1D9093070180930601892B79F487
:1015900081E090E001C0880FCA95EAF764E670E048
:1015A00080950E94AF1D9093070180930601CF9113
:1015B0000C94021E8A30B9F040F4883071F0893002
:1015C00079F0209A2898CF9108958C3091F070F09E
:1015D0008D30B9F73E9A4698F6CF219A2998F3CFE5
:1015E000229A2A98F0CF239A2B98EDCF529A5A98A4
:1015F000EACF539A5B98E7CF80E290E0909307019F
:10160000809306018091740181110EC00E944D1DCE
:1016100081E0809374012FEF83ED90E321508040AF
:101620009040E1F700C0000064E670E080E40E94B2
:10163000531D9093070180930601892B09F04EC03A
:1016400064E670E080E00E94AF1D909307018093F4
:101650000601892B09F042C064E670E080E00E9438
:10166000AF1D9093070180930601892BB9F564E6BD
:1016700070E08FE30E94AF1D9093070180930601F5
:10168000892B61F50E94021E64E670E080E40E94EE
:10169000531D9093070180930601892BF9F464E6AA
:1016A00070E08CE00E94AF1D9093070180930601CB
:1016B000892BA1F464E670E080E00E94AF1D909356
:1016C000070180930601892B49F464E670E08FE3FB
:1016D0000E94AF1D90930701809306010E94021E95
:1016E000809106010895CF93873050F580910601CF
:1016F00090910701C0E0892B71F464E670E081E409
:101700000E94531D9093070180930601892B31F0AD
:10171000C0E00E94021E8C2FCF91089584E690E0D5
:101720000E94DE1D97FF05C090930701809306017C
:10173000EFCFC82FC0951092070110920601E9CF94
:10174000CFB18FB1869586958C73C3708C2BC82FC3
:10175000C095E1CF1F920F920FB60F9211242F93D5
:101760003F934F935F936F937F938F939F93AF9329
:10177000BF93EF93FF938091E10082FF09C08091B6
:10178000E20082FF05C08091E1008B7F8093E10041
:101790008091DA0080FF24C08091D80080FF20C0B3
:1017A0008091DA008E7F8093DA008091D90080FFEB
:1017B0009BC080E189BD82E189BD09B400FEFDCFF7
:1017C00081E080936C0280914702811109C00E94E0
:1017D00048020E9413038091E20084608093E2003B
:1017E0008091E10080FF17C08091E20080FF13C06C
:1017F0008091E2008E7F8093E2008091E200806120
:101800008093E2008091D80080628093D80019BC58
:1018100085E080936C028091E10084FF29C0809173
:10182000E20084FF25C080E189BD82E189BD89B5E0
:10183000982F917080FFFBCF8091D8008F7D80938F
:10184000D8008091E1008F7E8093E1008091E200DA
:101850008F7E8093E2008091E20081608093E200BD
:1018600080916D02882309F445C084E080936C0266
:101870008091E10083FF27C08091E20083FF23C0B5
:101880008091E100877F8093E10082E080936C0289
:1018900010926D028091E1008E7F8093E100809133
:1018A000E2008E7F8093E2008091E200806180936D
:1018B000E20042E060E080E00E94E1028091F000FE
:1018C00088608093F000FF91EF91BF91AF919F915D
:1018D0008F917F916F915F914F913F912F910F90D9
:1018E0000FBE0F901F90189519BC10926C021092A9
:1018F000470276CF8091E30087FD93E090936C02DE
:10190000B7CF78941F921FB61F9211248F939F9385
:10191000AF93BF938091FC019091FD01A091FE01D6
:10192000B091FF010196A11DB11D8093FC01909320
:10193000FD01A093FE01B093FF01BF91AF919F9174
:101940008F911F901FBE1F9018952FB7F89480910C
:10195000FC019091FD01A091FE01B091FF012FBF0C
:1019600008950E94A50C9C0190913302809134024D
:10197000982B21F030933102209330029091350260
:1019800080913602982B21F030932E0220932D0265
:10199000E0911B02F0911C02309731F00480F58138
:1019A000E02D82E392E0099408958091F4019091F2
:1019B000F301892B9091F201892B8093540180913E
:1019C000F701882319F10E94A50C2091F5013091AF
:1019D000F6018217930711F00E947205809154015D
:1019E0009091F701892B80935401809112018823F3
:1019F00041F18091190287FF24C08EE1E6E5F1E014
:101A000090E0815000F591110E947205E0911B0257
:101A1000F0911C023097E1F080911201882359F077
:101A20008091190287FF07C080915401809355016E
:101A300085E0809354010280F381E02D84E591E0FC
:101A4000099486E0DBCF21912223D9F29F5FD9CF81
:101A500008951092F3011092F2010E94D50C85E0D6
:101A6000E2E3F2E0DF011D928A95E9F710922F027E
:101A700010922C02109200020E94B10C90E080E0C3
:101A80000E94F40590E080E00C94DE050E947A0844
:101A900060931502709316028093170290931802B8
:101AA0000C94290D0F931F9341E050E060E070E02B
:101AB00004C0440F551F661F771F8A95D2F7CB01CC
:101AC000BA016095709580959095009115021091DE
:101AD000160220911702309118026023712382238D
:101AE00093231F910F910C94460D9091F1018095D5
:101AF00089238093F101282F277091F4282F082E35
:101B0000000C330B9217130659F085958595859532
:101B10000E94520D1092F1011092F0011092EF010B
:101B200008950F931F9341E050E060E070E004C01F
:101B3000440F551F661F771F8A95D2F780911502B3
:101B400090911602A0911702B09118028A019B0190
:101B5000082B192B2A2B3B2BC901B8011F910F9180
:101B60000C94460D6093F8017093F9018093FA018B
:101B70009093FB010C94290D1092F40180911201B5
:101B8000E6E5F1E0882359F08091190287FF07C04C
:101B90008EE1DF011D928A95E9F70C94290D86E00C
:101BA000F8CF1F93CF93DF93CDB7DEB7AA970FB6C9
:101BB000F894DEBF0FBECDBF8EE692E02091F1001B
:101BC000DC012D93CD01B2E086379B07B9F78091F8
:101BD0006F02833009F471C0B8F4813009F448C051
:101BE000823009F4B2C08091E80083FF83C2809103
:101BF0006E0290916F029A3008F07CC2E92FF0E0FB
:101C0000E254F04E0C942E1E8A3009F48DC08B30B5
:101C100009F470C0893039F780916E02813219F76A
:101C20008091720290917302009711F00297D9F699
:101C30008091E800877F8093E8008091E80082FF30
:101C400037C09091F3008091F200029729F48091BF
:101C5000F1008B7F813021F48091F1008093490263
:101C60008091E8008B778093E8000E94C202BBCF8E
:101C700080916E02813A09F0B6CF8091E800877FAB
:101C80008093E8008091720290917302892B61F435
:101C900060E28AE492E070E00E9474038091E800C0
:101CA0008B778093E8009FCF60E090E080E0F3CFF7
:101CB00080916C028111C1CF96CF80916E02813AE2
:101CC00009F091CF8091720290917302892B09F0F3
:101CD0008ACF8091E800877F8093E8008091E800B8
:101CE00080FFFCCF809112018093F1008091E80089
:101CF0008E77B9CF80916E02813209F074CF8091D6
:101D0000720290917302892B09F06DCF8091E800E7
:101D1000877F8093E8000E94C202809170028093C6
:101D200012010E94BC0D5FCF80916E02813209F0DA
:101D30005ACF8091E800877F8093E8000E94C2021A
:101D400080917102809348024ECF80916E02813A59
:101D500009F049CF8091E800877F8093E800809167
:101D6000E80080FFFCCF80914802BECF803899F018
:101D7000823809F0BFC1809172028F70873008F0FD
:101D8000B9C18093E9008091EB0085FB882780F939
:101D90001092E90006C080916A0290916B02911145
:101DA00082609091E800977F9093E8008093F10023
:101DB0001092F1008091E8008E7798C1882309F491
:101DC00086C1823009F096C180917002811189C16B
:101DD000809172028F702FEF280F263008F08AC191
:101DE0008093E9002091EB0020FF7BC1933031F418
:101DF0008091EB0080628093EB0073C19091EB00C7
:101E000090619093EB0021E030E001C0220F8A95B1
:101E1000EAF72093EA001092EA008091EB008860D4
:101E2000EACF811167C1109170021F778091E300A2
:101E30008078812B8093E3008091E800877F8093F6
:101E4000E8000E94C2028091E80080FFFCCF8091F0
:101E5000E30080688093E30082E0111183E08093C7
:101E60006C0248C18058823008F044C12091700251
:101E7000309171022C3DE3E03E07A1F583E08A83B7
:101E80008AE289834FB7F894DE01139620E03EE0A2
:101E900051E2E32FF0E050935700E49120FF03C09C
:101EA000E295EF703F5FEF708E2F90E0EA30C0F068
:101EB000C7968D939D932F5F243159F74FBF809123
:101EC000E800877F8093E8006AE270E0CE01019627
:101ED0000E9474038091E8008B778093E8000AC128
:101EE000C096E7CF8091720290917302432F5527DD
:101EF0004330510509F44AC078F54130510509F4E1
:101F00007AC084E590E0EEE9F3E04230510509F053
:101F1000F1C02091E800277F2093E800209174020F
:101F2000309175028217930708F49C0140E0211557
:101F3000310509F065C0411163C08091E80082FD60
:101F4000C9CF80916C02882329F2853019F28091E3
:101F5000E80083FFF2CFBECF4132510509F43CC007
:101F60004232510509F0C6C08330910508F0C2C065
:101F7000FC01EE0FFF1FE95BFE4F0190F081E02DA9
:101F80008C5B9E4FDC018C9190E01AC0332721308E
:101F90003105D1F02115310561F02230310509F00C
:101FA000A9C0E4E0F4E0E4918E2F90E0E4E0F4E0F6
:101FB00007C0EEE4F4E0E4918E2F90E0EEE4F4E06C
:101FC000009709F497C0A5CFECE1F4E0E4918E2FDF
:101FD00090E0ECE1F4E0F4CF8330910508F08AC0A2
:101FE000880F991FFC01E35BFE4F0190F081E02D0B
:101FF00089E090E08ECF82E190E0E2EFF3E089CFDC
:1020000080916C02882309F465CF853009F462CF92
:102010008091E80083FD5ECF8091E80082FD8DCF46
:102020008091E80080FF83CF9091F3008091F200CF
:102030002115310519F08830910550F041E00897DD
:1020400009F040E08091E8008E778093E8006FCF40
:1020500044914093F1003196215031090196E8CF27
:10206000803809F047C08091E800877F8093E800BE
:1020700080916D028093F1009DCE81113BC0109143
:1020800070021230B8F58091E800877F8093E800F5
:1020900010936D020E94C202112311F084E005C06A
:1020A0008091E30087FDFACF81E080936C0242E0EB
:1020B00061EC81E00E94E10242E061EC82E00E947A
:1020C000E10242E261EC83E00E94E10213C08091F0
:1020D0007002813079F481E0933009F080E08093E0
:1020E0006B021092E9008091E800877F8093E800FE
:1020F0000E94C2028091E80083FF0AC08091E8003C
:10210000877F8093E8008091EB0080628093EB00F2
:10211000AA960FB6F894DEBF0FBECDBFDF91CF9168
:102120001F9108951F920F920FB60F9211242F93B3
:102130003F934F935F936F937F938F939F93AF934F
:10214000BF93CF93DF93EF93FF93D091E900DF70BC
:102150008091EC00C82FC17080FDC0E81092E900AA
:102160008091F000877F8093F00078940E94D10DD9
:102170001092E9008091F00088608093F000CD2BF0
:10218000CF70C093E900FF91EF91DF91CF91BF91A4
:10219000AF919F918F917F916F915F914F913F91FF
:1021A0002F910F900FBE0F901F901895882341F02C
:1021B00080959091F40189238093F4010C94D50CBF
:1021C0000895882339F09091F401982B9093F401AD
:1021D0000C94D50C08958823B1F19CEF980F913A97
:1021E00038F4682F84E591E00E9413050C94D50C17
:1021F00090E2980F983088F4877021E030E0A901D0
:1022000002C0440F551F8A95E2F7CA01809590914C
:10221000F40189238093F401E9CF9BE5980F933073
:1022200020F490E080E00C94F40598E5980F973145
:1022300020F490E080E00C94DE05803F20F00E94C6
:10224000D5030C94B10C0895CF93C82F882309F4BB
:102250006EC08CEF8C0F813AB8F580911201882303
:1022600011F18091190287FF1EC0EC2FE695E695CB
:10227000E695F0E0EC5AFE4F828190E04C2F4770DB
:1022800021E030E002C0220F331F4A95E2F782239B
:102290009323892B89F06C2F84E591E00E9413052C
:1022A0000E94D50C09C0E6E5F1E08191C81799F3C9
:1022B00081E0EC35F807C9F76C2F84E591E00E94C6
:1022C0003D05CF910C94D50C80E28C0F883068F4DA
:1022D000C77021E030E001C0220FCA95EAF7809173
:1022E000F401822B8093F401ECCFEBE5EC0FE330AB
:1022F00040F4F0E0ED5EFE4F808190E0CF910C94D1
:10230000F405E8E5EC0FE73150F4F0E0EE0FFF1FC5
:10231000EA5EFE4F80819181CF910C94DE05C03F33
:1023200030F08C2F0E949C04CF910C94B10CCF9173
:1023300008950F931F93CF93DF93C62FD42F022FAF
:10234000FC0182818823A1F0609378020E94A50C91
:102350009093770280937602C77081E001C0880F66
:10236000CA95EAF7DF91CF911F910F910C94E1107C
:1023700080917802681338C080917602909177023C
:102380000E940405883C910578F510E21D0FCD17D9
:10239000B9F080E28C0F883040F4C77081E001C052
:1023A000880FCA95EAF70E94D610183048F481E0E9
:1023B0009D2F977001C0880F9A95EAF70E94E1104F
:1023C000802F0E942411802F0E94EB10183098F467
:1023D000D77081E001C0880FDA95EAF7DF91CF91DD
:1023E0001F910F910C94D610C77081E001C0880F27
:1023F000CA95EAF7F3CFDF91CF911F910F9108951E
:102400004F925F926F927F928F929F92AF92BF9204
:10241000CF92DF92EF92FF920F931F93CF93DF93B0
:1024200000D000D00F92CDB7DEB77C01FC018381D4
:102430009481892B39F01081D180812F8D218F3F9C
:1024400009F0B1C40F900F900F900F900F90DF9193
:10245000CF911F910F91FF90EF90DF90CF90BF90A1
:10246000AF909F908F907F906F905F904F90089566
:102470000E94F507082F682F89819A810E94A6057E
:10248000E12FF0E026E0D29EE00DF11D112434E5AD
:10249000039FE00DF11D1124EE0FFF1FEA55FE4FC3
:1024A000059114910A328DE5180709F088C0F701EB
:1024B00082818823C9F18091030291E0980F97707F
:1024C000887F953008F4892B809303028091030262
:1024D0008770FFEF8F9FC001112495958795959583
:1024E00087959927909389008093880090938B001B
:1024F00080938A0090938D0080938C00409103021A
:102500005091040260910502709106028FE090E004
:102510000E945A1E60911502709116028091170256
:10252000909118020E947A08F7018281882309F4A9
:102530004BC4109278020230FCE51F0708F477C103
:1025400006312CE5120738F098012B5F3C45273007
:10255000310508F06CC10E941F0A90931A02809303
:1025600019020F303CE5130709F442C108F0BCC062
:1025700008309CE5190709F425C108F091C0043022
:10258000FCE51F0709F412C108F077C002303CE5F2
:10259000130709F403C103301C4509F403C160911A
:1025A000190210911A0284E090E00E94481E612FE7
:1025B00081E290E00E94481E0E94BC0D29C0043FA9
:1025C0002CE5120709F44AC098F4093D8CE5180778
:1025D00009F440C00A3D9CE5190709F44BC0083DC9
:1025E000ECE51E0709F0A0CF26E241EE61EE0DC03A
:1025F000063FFCE51F07D1F1A8F127E245EE66EEA4
:10260000073F3CE5130709F08FCFC7010E949911DE
:102610008091F101877009F415CFF7018281882339
:1026200009F410CF82E00F900F900F900F900F9051
:10263000DF91CF911F910F91FF90EF90DF90CF909E
:10264000BF90AF909F908F907F906F905F904F90D2
:102650000C94750D27E245EE65EED7CF26E241EEEC
:1026600060EED3CF27E245EE64EECFCF26E241EE17
:1026700062EECBCF28E241E0EFCF8091190280617A
:1026800006309CE5190709F447C08091190288605B
:1026900007301C4508F440C08091190280623CC09C
:1026A0000B30FCE51F0709F49BC068F409303CE5DA
:1026B000130709F48BC00A301C4509F070CF8091D4
:1026C00019028C6029C0809119028B7F0D309CE526
:1026D000190711F1809119028D7F0E301C45E0F031
:1026E00080911902877F18C00B3FFCE51F0709F492
:1026F00061C060F502313CE5130709F481C078F44C
:1027000000319CE5190709F477C0809119028F7B8D
:1027100001311C4509F043CF8093190240CF0431A9
:10272000FCE51F0709F47AC008F470C005311C45A8
:1027300009F035CF8091190282FB992790F921E0A9
:10274000922790FB82F990FB83F9E6CF0E3F8CE550
:10275000180709F449C070F40C3FECE51E0771F14D
:1027600080911A028E7F0D3F1C4509F018CF80938F
:102770001A0215CF01152DE5120709F44BC060F1BF
:1027800001301D4509F00BCF80911A02982F9095CA
:1027900091708E7F892B90FB81F9E9CF809119028E
:1027A0008160BACF809119028260B6CF8091190200
:1027B0008460B2CF80911A028160D9CF80911A02D1
:1027C0008260D5CF809119028064A6CF0E94BC0D93
:1027D000809119028068A0CF80911A028360C7CFD0
:1027E000809119028E7F98CF80911A028D7FBFCF82
:1027F000809119028F7E90CF809119028F7D8CCFAE
:102800000E94BC0D809119028F7786CF80911902AA
:10281000837F82CF80911A028C7FA9CF0E94BC0D4A
:1028200090911902892F97FB87F9805875CF06314F
:102830009CE5190709F0D5C28091F4018A7A91E0EC
:1028400009F490E090937F0169E2811165E384E5EA
:1028500091E00E943D050E94D50CDACE0E94BC0D8D
:10286000EFEFF4E32CE0E150F0402040E1F700C04E
:102870000000F89481E08093E00080E28093D8002B
:102880001092C9008FE19EE40197F1F700C00000AB
:102890001DBA109268001CBC10BE1FBA10927A00BC
:1028A00010926E0010926F001092710010927200E0
:1028B0001092C9001092BC0014B817B81AB81DB80D
:1028C00010BA1092BC0015B818B81BB81EB811BACF
:1028D0000C94003F9DCE0E942D0A9ACEC8010E9402
:1028E0007D05D82E95C2212F2F70A22E107F19F0B2
:1028F000A29420EFA222DD20C9F0AA2069F080E294
:10290000800F883010F081100BC08091F401A82A4C
:10291000A092F4010E94D50C802F0E94241118C0AF
:102920008091F301A82AA092F301F4CF802F0E9496
:10293000EB10AA2069F0A094005E083010F081101E
:1029400045C08091F401A822A092F4010E94D50C08
:10295000EB2DE850FF0B349710F40E940A06CC20B0
:10296000A9F08091F10180FD11C0F70112828595D7
:10297000859585950E94910DC7010E940012809156
:10298000F1018595859585950E94520D85E0F701A9
:10299000DE01119601900D928A95E1F789819A8165
:1029A0000E947D059A81E981F0E026E0929FE00D8A
:1029B000F11D112434E5839FE00DF11D1124EE0F6C
:1029C000FF1FEA55FE4F859194913CCD8091F30114
:1029D000A822A092F301BACF312F3F70932E107F1F
:1029E000103219F0929490EF9922882041F081E002
:1029F000881661F1DD20A1F1AA2041F08DCFDD2004
:102A0000C1F08091F701982AA11004C0892D0E947D
:102A1000E1109ECF91E0A912F9CF891509F498CF62
:102A20000E94A50C9093F6018093F5019092F70116
:102A30008FCFA11006C00E947205892D0E94D6106A
:102A400087CFE1E0AE1609F483CFF5CFDD2029F082
:102A5000F1E0FA1508F47CCFD9CFA11079CFEDCFF2
:102A6000AA2059F329E3821297C13FEF87EE93E042
:102A7000315080409040E1F700C000008DC1812FAF
:102A800086958695837061F0813009F061CFC80129
:102A90009370D11002C090E080E00E94DE0558CF14
:102AA000C8019370D11002C090E080E00E94F4054C
:102AB0004FCF802FDD2029F00E949C040E94B10C92
:102AC00047CF0E94D503FACF812F837009F066C0EB
:102AD000D1103ECF802F829586958770880F880F02
:102AE000602F6F70462E512C712C612C082E04C063
:102AF000440C551C661C771C0A94D2F740E050E049
:102B0000BA0104FF0FC04FE050E060E070E004C085
:102B1000440F551F661F771F8A95D2F74095509531
:102B200060957095812F869586958370823019F116
:102B3000D8F40091F8011091F9012091FA01309137
:102B4000FB01813069F04429552966297729CB0199
:102B5000BA0160237123822393230E94B20DF8CE21
:102B6000402A512A622A732ACB01BA0164297529A5
:102B700086299729F2CF442955296629772900917A
:102B8000F8011091F9012091FA013091FB01CB017C
:102B9000BA016027712782279327DFCF8695DD2032
:102BA00011F0812F8170882309F4D2CE802F829575
:102BB00086958770880F880F602F6F70462E512C76
:102BC000712C612C082E04C0440C551C661C771C0B
:102BD0000A94D2F740E050E0BA0104FF0FC04FE082
:102BE00050E060E070E004C0440F551F661F771F7F
:102BF0008A95D2F74095509560957095812F86956E
:102C000086958370823019F1D8F4009115021091E5
:102C100016022091170230911802813069F0442980
:102C2000552966297729CB01BA01602371238223B4
:102C300093230E94460D8CCE402A512A622A732A81
:102C4000CB01BA016429752986299729F2CF442935
:102C500055296629772900911502109116022091B5
:102C6000170230911802CB01BA0160277127822721
:102C70009327DFCF1F70DD2029F0812F0E94910D57
:102C8000802FC5CE802F0E94D610812F0E94520D1A
:102C90005FCE802FE2EF8E1609F456C0E81578F06B
:102CA000F0EF8F1659F121EF821609F445C0DD20AF
:102CB00009F46DC0A11030CE812F8F7142C033EF67
:102CC000831609F446C094EF8912F1CFDD2009F490
:102CD00053C01F71812F0E94910DF8E01F9FC0010A
:102CE000112483608093F101812F0E94910D0E9435
:102CF000A50C9093F0018093EF012ACEDD20B9F06E
:102D0000A11026CE1F7161E070E080E090E004C069
:102D1000660F771F881F991F1A95D2F70091150229
:102D20001091160220911702309118029ECFE1E017
:102D3000EA1508F40DCEE6CF812F8F71DD2009F45E
:102D4000A5CF0E94910D04CE812F8F71DD20C9F394
:102D50009DCF60E070E0CB01DD2009F46ACF1F71E8
:102D600061E070E080E090E004C0660F771F881F8C
:102D7000991F1A95D2F75DCF81E00E94750D21E071
:102D80002A1508F0E5CD82E00E94750DE1CDAA205C
:102D900039F0893309F469CE802F0E94EB10D8CD29
:102DA000812F8F7173CF85E0DE01119601900D9216
:102DB0008A95E1F7F701228189819A81211158CB07
:102DC0000E947D05082F5CCB06311C4599F480914B
:102DD0007F0169E2811165E384E591E00E941305BA
:102DE0003ACD01152CE5120709F438CD0F3D1C45ED
:102DF00009F471CDF70100811181882309F46ECDAA
:102E0000C8010E94F507D82E682FC8010E94A605A8
:102E1000B8018D2D0E9459068C01882EF701A580DE
:102E2000A2944FE0A422D280D1101092F30180919D
:102E3000F101877099F0DD2089F0812F807F803447
:102E400021F080E2800F883048F082E00E94750D0A
:102E50008091F1018770CC24C3948111C12CB12ED3
:102E6000B2943FE0B322FBE0FB1508F471CDEB2DEB
:102E7000F0E0E853F04E0C942E1E1F93CF93DF9397
:102E800080918501807FA9F480918201882389F057
:102E90008091B701D091860160918001709181018C
:102EA000A0918301B0918401C62FC72316E0D813E7
:102EB00004C0DF91CF911F91089590E0109711F019
:102EC000CF3F19F401968770F2CF189F9001199F98
:102ED000300D1124F901E957FE4F41814713F2CF1C
:102EE00040814613EFCF42814111ECCF43815481A1
:102EF0004A1B5B0B483C510528F7809185018F7078
:102F0000806180938501F901E457FE4F80818F70C5
:102F10008061808380E891E00E940012DF91CF9170
:102F20001F910C94D405AF92BF92CF92DF92EF9293
:102F3000FF920F931F93CF93DF93CDB7DEB76197C7
:102F40000FB6F894DEBF0FBECDBF8C0185E0F8014F
:102F5000DE011D9601900D928A95E1F7F8018081BE
:102F60009181E28020E8A22E21E0B22E60918301BF
:102F7000709184016115710509F42BC130918001B4
:102F800040918101232F24232F3F09F422C1C380C4
:102F9000D480F0908201F601E61BF70BFF2009F4C4
:102FA000FBC020918501522F507FE83CF10508F0CD
:102FB000BBC0511178C0FE2C491321C038131FC06B
:102FC000E1101DC02F70206120938501C5010E9472
:102FD000001280918501F80185838F2D61960FB6CF
:102FE000F894DEBF0FBECDBFDF91CF911F910F913F
:102FF000FF90EF90DF90CF90BF90AF900895CD28D5
:1030000029F0282F29232F3F09F001C120E0F22FBA
:10301000F170DF2E20FF3DC02091B7014091860165
:1030200056E0241315C08D879E878D859E850E944E
:103030003708292F22952F702230F8F0243020F500
:103040009F70F9F0F8019581907FD9F4D12C1FC0C1
:1030500030E0529FF001539FF00D1124E957FE4FCD
:103060006181961306C06081861303C06281E612F7
:1030700010C02F5F3F4F2770D4CF9F7011F088236F
:1030800029F3805E883010F3C8010E940012FD2CE5
:10309000A4CFEE2009F4A1CF8091850181608093B7
:1030A0008501F12C9ACF491312C0381310C0E110DA
:1030B0000EC0F8012583C8010E94001286E0F801C5
:1030C000A0E8B1E001900D928A95E1F786CF8D8757
:1030D0009E878D859E850E944108882309F1EE20F8
:1030E000F9F080918501803270F02091800130915B
:1030F000810138872F831986DB86CA868C87CE01AB
:1031000007960E94001286E0F801A0E8B1E0019065
:103110000D928A95E1F70E943D17FF24F3945DCF4D
:10312000C8010E940012F9CF51110AC080E891E055
:103130000E94001286E0F50111928A95E9F7B1CF5D
:1031400049130FC038130DC0E1100BC0F8012583DF
:10315000C8010E94001286E0F50111928A95E9F7F4
:103160003CCF8D879E878D859E850E944108882350
:10317000B9F2EE20A9F280918501803220F22091EF
:103180008001309181013A8329831B82DD82CC82C8
:103190008E83CE010196B5CFE83CF105E0F6FE2C1A
:1031A000EE2009F4BDCF491303C0381709F486CFC8
:1031B0008D879E878D859E850E9441088111A3CFB2
:1031C00080918501816080938501C8010E94001271
:1031D00004CFEE2009F4A4CF8D879E878D859E8530
:1031E0000E944108F82E882309F49ACF86E0F8015E
:1031F000A0E8B1E001900D928A95E1F780918001FD
:10320000909181010E9437080E943D17E6CE21E08F
:103210002E25FDCE1F93CF93DF93CDB7DEB76797F3
:103220000FB6F894DEBF0FBECDBF4B8B5C8B6D8BA2
:103230007E8B8F8B1A8A198A85E0FE017396DE01D8
:103240001D9601900D928A95E1F70E94A50C2091A0
:10325000EF013091F0018217930721F08091F10185
:1032600082FF7CC00E94A50C2091F5013091F601EF
:103270008217930711F00E94720586E0FE013D96C9
:10328000DE01179601900D928A95E1F7CE0107961F
:103290000E949317811112C086E0FE013796DE016D
:1032A000119601900D928A95E1F78A859B85892B6D
:1032B00029F08F81988589238F3FB1F516E08091A1
:1032C000B7019091860189131DC067960FB6F894D7
:1032D000DEBF0FBECDBFDF91CF911F91089596E065
:1032E000929FD001939FB00D1124A957BE4FFE01AC
:1032F000319601900D929A95E1F7809386010E9494
:10330000D405DCCF819FC001112489579E4F0E94B4
:1033100093178823D1F28091B70190E001968770CE
:1033200099278093B701CBCF2091860130E0C90166
:103330000196877099274091B7014817190679F6C9
:103340000E94BC0D109286011092B70186E0E0E861
:10335000F1E0DF011D928A95E9F7B0CF82E00E948B
:10336000750D80CF8F929F92BF92CF92DF92EF9296
:10337000FF920F931F93CF93DF938091060190915B
:103380000701892B91F0809175018F5F8093750102
:1033900081110BC00E94FC0A90E09093070180937A
:1033A0000601892B11F40E94A50927E0822E22E054
:1033B000922E740110E000E097E0C92EC00E802F1D
:1033C0000E94A80A8C2D0E94A80A802F0E94730BCD
:1033D000E70199917E01D12C891729F0FE013197DF
:1033E0008083DD24D3948C2D0E94730BF70196818A
:1033F000891709F47AC0868381E08D29182B0E94F1
:10340000ED080F5F0730C1F60E94A50C60917701AF
:1034100070917801909378018093770120917601E3
:1034200030E0261B370B820F931F6BEF70E00E947A
:10343000061EE82E392F082F80937601F0907A012E
:10344000FF2009F45EC010927A01E0910102F09130
:103450000202AF01425F5F4F20E08BEFB82E6BEFAF
:1034600070E0A191AB3F99F0CA2ED12C8E2D932FF5
:103470000A17E8F18C199D09092E000CAA0BBB0B49
:10348000C297A105B105C8F1DF011197BC924E1793
:103490005F0739F720937A01111102C0211133C05F
:1034A00010927901A0910102B091020290917A01EB
:1034B000EEE1F2E080E03191E40129914E01321712
:1034C00051F03C913B3FD9F40C93AF01415051096D
:1034D000EA01288391E01196D2E0EC32FD0759F71A
:1034E00090937A018093790112C080E086CFDB014E
:1034F000AC19BD098A0F9B1FBFCF2F2DC8CF81E00C
:10350000EACF1111CDCF809179018111C9CF812FDF
:10351000DF91CF911F910F91FF90EF90DF90CF90AF
:10352000BF909F908F900895CDB7DEB72F970FB6BD
:10353000F894DEBF0FBECDBF84B7877F84BF0FB6C0
:10354000F894A89580916000886180936000109243
:1035500060000FBE80E890E00FB6F89480936100A1
:10356000909361000FBE85B7806885BF85B780687E
:1035700085BF0E9448020E9413038091E20084608C
:103580008093E200789480916C028823A1F01091DE
:10359000E9001F709091EC00892F817090FD80E808
:1035A000182B1092E9008091E80083FD0E94D10D54
:1035B0001F701093E90082E084BD93E095BD9AEFFF
:1035C00097BD80936E000E94FC0A90E090930701E3
:1035D000809306010E94ED080E94FC08E7E0F2E0FB
:1035E00085E192E0AEE1B2E011921D928E179F0745
:1035F000D9F78EE090E00E947C1E809301029093A8
:103600000202FC010E962BEF21938E179F07E1F724
:1036100090E080E00E94421E8F3E9E4F11F00E947B
:103620002D0A89EA8093800089E0809381002498A4
:103630002C983F988AB18F7C8AB96E98479A8BB143
:1036400080638BB9769A8FE090E00E943C1E609375
:103650000302709304028093050290930602677040
:103660004FEF649FB0011124759567957595679527
:103670007727709389006093880070938B00609324
:103680008A0070938D0060938C000E94A50990E0E1
:1036900080E00E94421E8F3E9E4F11F00E942D0A34
:1036A00082E090E00E94341E809338020E941F0A3C
:1036B00090931A028093190283E090E00E94341ED6
:1036C000682F70E090E080E00E94B20D60911502DA
:1036D0007091160280911702909118020E947A0848
:1036E00088E091E090931C0280931B0298E1E92E00
:1036F000F12C2CE2C22E22E0D22E8EE192E03EE0AE
:10370000B32EB80E80E4A82E80916C0200E112E185
:10371000853009F446C10E94B219E9E3F2E0AEE156
:10372000B2E010E000E0302F8D912191281709F4CC
:1037300047C190E0992493942827422F492109F406
:103740003AC19E833F83892191E009F490E09887F4
:103750000E94A50C8160782F9A8789874E815F81AE
:1037600068858A850E940A19F801E75CFD4F80810F
:103770009826908285E0E2E3F2E0DE011196019066
:103780000D928A95E1F79090330280903402109167
:1037900035020091360210923302109234021092D8
:1037A000350210923602892D882909F448C080918B
:1037B0003002909131020E9404059C0190912F02E9
:1037C000992309F43FC125313105C8F19F3F19F014
:1037D0009F5F90932F02992059F00E9478049FEFE9
:1037E00019140CF491E0899F802D112480933302E9
:1037F000882059F00E9478049FEF18140CF491E08F
:10380000899F802D11248093340230913302332319
:10381000B1F020913402222391F045EB3403C00132
:103820001124992309F4E3C09093330245EB240358
:1038300090011124332309F4DEC030933402812F28
:10384000802B09F448C080912D0290912E020E9495
:1038500004059C0190912C02992309F4EEC02531B6
:103860003105C8F19F3F19F09F5F90932C021123FF
:1038700059F00E9458049FEF11160CF491E0899FB3
:10388000802D112480933502002359F00E945804A2
:103890009FEF10160CF491E0899F802D11248093E6
:1038A0003602309135023323B1F0209136022223C3
:1038B00091F045EB3403C0011124992309F49FC012
:1038C0009093350245EB240390011124332309F42E
:1038D0009AC0309336028091330290913402892B42
:1038E00090913502892B90913602892B11F00E941C
:1038F000B10C85E0FE013196A2E3B2E001900D9299
:103900008A95E1F70E940A0690913702891709F417
:10391000FBCE0E940A0680933702F4CE80916C029F
:10392000843009F110921D020FB6F894A895E09228
:1039300060000FBEA092600083B7817F846083BF68
:1039400083B7816083BF7894889583B78E7F83BF68
:103950000FB6F894A895809160008861809360000C
:10396000109260000FBE80916B028823D1F00E94FC
:10397000FC0A90E090930701809306010E94ED08F5
:103980000E94FC08EEE1F2E01192CE16DF06E1F7AC
:103990000E94B219EEE1F2E08191811138C0BE12AD
:1039A000FBCF80916C02853009F4B8CF0E94BC0D2A
:1039B0000E940A06B0CE9F5F990C963009F0BDCEEA
:1039C0000F5F1F4F0E30110509F0ADCE8FEF8B87C3
:1039D0008C871D860E94A50C8160782F9F878E871B
:1039E0004B855C856D858F850E940A19C3CE81E069
:1039F000809333021BCF81E08093340220CF81E09B
:103A0000809335025FCF81E08093360264CF09BD99
:103A100019BD09B400FEFDCF8091D8008F7D809341
:103A2000D8008091E00082608093E0008091E00007
:103A300081FDFCCF0E94BC0DB4CF2139314008F08C
:103A400013CF49CF232B09F0C3CEF9CE1F921FB657
:103A50001F9211248F939F93AF93BF9380911D0268
:103A6000811113C08091FC019091FD01A091FE0194
:103A7000B091FF014196A11DB11D8093FC0190936F
:103A8000FD01A093FE01B093FF01BF91AF919F9103
:103A90008F911F901FBE1F9018951092B9008CE057
:103AA0008093B8000895EF92FF920F931F93CF93E6
:103AB000DF93182FEB011092BC0084EA8093BC00C6
:103AC0000E94A50C7C018091BC0087FF27C08091DB
:103AD000B900887F883029F08091B900887F8031D3
:103AE000D9F51093BB0084E88093BC000E94A50C1C
:103AF0008C018091BC0087FF24C02091B900287FF1
:103B000090E080E02831B1F081E090E0203411F4C1
:103B100090E080E09195819591090CC0CF3FDC0742
:103B200091F20E94A50C8E199F098C179D0758F2DF
:103B30008EEF9FEFDF91CF911F910F91FF90EF904C
:103B40000895CF3FDC07A9F20E94A50C801B910BC2
:103B50008C179D0770F2ECCF8FEF9FEFEBCF0F9399
:103B60001F93CF93DF93EB018093BB0084E8809396
:103B7000BC000E94A50C8C018091BC0087FF11C085
:103B80002091B900287F81E090E0283211F490E084
:103B900080E0919581959109DF91CF911F910F91CF
:103BA0000895CF3FDC0741F30E94A50C801B910BC9
:103BB0008C179D0708F38EEF9FEFEECF0F931F93A7
:103BC000CF93DF93EC0184E88093BC000E94A50CA6
:103BD0008C018091BC0087FF08C08091BB0090E001
:103BE000DF91CF911F910F910895CF3FDC0789F3AB
:103BF0000E94A50C801B910B8C179D0750F38EEF34
:103C00009FEFEECF84E98093BC000895AA1BBB1BF5
:103C100051E107C0AA1FBB1FA617B70710F0A61BCC
:103C2000B70B881F991F5A95A9F780959095BC01ED
:103C3000CD01089597FB072E16F4009407D077FD69
:103C400009D00E94061E07FC05D03EF49095819590
:103C50009F4F0895709561957F4F0895EE0FFF1F58
:103C60000590F491E02D0994F999FECF92BD81BDA4
:103C7000F89A992780B50895A6E1B0E044E050E0B5
:103C80000C946E1EA8E1B0E042E050E00C946E1E71
:103C9000262FF999FECF92BD81BDF89A019700B405
:103CA000021639F01FBA20BD0FB6F894FA9AF99AA5
:103CB0000FBE08950396272F0E94491E0E94481E9A
:103CC000252F0E94491E242F0C94491E0196272F50
:103CD0000E94491E0C94481EDC01CB01FC01F9999D
:103CE000FECF06C0F2BDE1BDF89A319600B40D9248
:103CF00041505040B8F708950F931F93CF93DF932F
:103D00008230910510F482E090E0E0917B02F09126
:103D10007C0230E020E0B0E0A0E0309799F421157B
:103D2000310509F447C0281B390B24303105C0F593
:103D30008A819B816115710571F1FB0193838283F7
:103D4000FE0111C04081518102811381481759073A
:103D5000F8F04817590799F4109761F012960C93F0
:103D6000129713961C933296CF01DF91CF911F913A
:103D70000F91089500937B0210937C02F4CF2115DC
:103D8000310519F04217530718F49A01BD01EF01EC
:103D9000DF01F801C2CF90937C0280937B02D0CFE9
:103DA000FE01E20FF31F8193919322503109398371
:103DB0002883DACF2091790230917A02232B41F4C3
:103DC000209102013091030130937A02209379020D
:103DD00020910001309101012115310541F42DB7E9
:103DE0003EB74091040150910501241B350B4091D1
:103DF000790250917A024217530708F0B5CF241B7D
:103E0000350B2817390708F4AFCFBC016E5F7F4F21
:103E10002617370708F4A8CF640F751F70937A022E
:103E200060937902FA01819391939ECFCF93DF93B0
:103E30000097E9F0FC01329713821282C0917B0255
:103E4000D0917C02DE0130E020E02097A1F42081B7
:103E50003181820F931F2091790230917A022817C5
:103E6000390709F067C0F0937A02E0937902DF9195
:103E7000CF910895DA01AE17BF0708F040C012963F
:103E80004D915C9113979D014115510599F7D90109
:103E90001396FC93EE9312974D915D91A40FB51F6D
:103EA000EA17FB0779F4808191810296840F951FB0
:103EB000D90111969C938E938281938113969C9342
:103EC0008E931297B0E0A0E08A819B810097B9F5AC
:103ED000FE0181919191E80FF91F809179029091F3
:103EE0007A028E179F0719F6109761F510927C02DF
:103EF00010927B02D0937A02C0937902B8CFB38339
:103F0000A28340815181840F951FA817B90771F4CE
:103F10004E5F5F4F8D919C911197480F591F5183B0
:103F2000408312968D919C91938382832115310554
:103F300009F0ADCFF0937C02E0937B0298CFDE01D5
:103F4000EC01C2CF13961C921E921297D3CFF89415
:103F5000FFCF50085008590859085B0859085908FC
:103F60005908500850086008590859086008D408D2
:103F7000E008E508DE08E308EA08E808B60EDE0E09
:103F80007A10DE0E7A10110F320F7A1030103D10B9
:103F900073147314EC14EC143F155915A814A814D9
:083FA00064153A164916491692
:103FA80000007D0220002000D20365094409400971
:103FB8003C0901818283E200E900EA00B500B6000D
:103FC800B700CD008301CC008A019201940121023F
:103FD800230224022502260227022A02B300B40083
:103FE8006F007000404D6D66011901AC00B003C947
:043FF80003E20300DD
:00000001FF
